:100000000C9461000C9473000C9473000C947300B6
:100010000C9473000C9473000C9473000C94730094
:100020000C9473000C9473000C9473000C94730084
:100030000C9473000C9473000C9473000C94730074
:100040000C9496010C9473000C9473000C94730040
:100050000C9473000C9473000C9473000C94730054
:100060000C9473000C94730000000000240027001F
:100070002A0000000000250028002B0000000000DE
:1000800023002600290004040404040404040202DA
:100090000202020203030303030301020408102007
:1000A0004080010204081020010204081020000012
:1000B0000008000201000003040700000000000027
:1000C000000011241FBECFEFD8E0DEBFCDBF21E07E
:1000D000A0E0B1E001C01D92A930B207E1F70E9493
:1000E000E0010C9484020C940000833081F028F429
:1000F000813099F08230A9F008958730A9F08830D6
:10010000C9F08430B1F4809180008F7D03C080916C
:1001100080008F7780938000089584B58F7784BDA9
:10012000089584B58F7DFBCF8091B0008F77809349
:10013000B00008958091B0008F7DF9CFCF93DF9309
:10014000E0EBF0E08491ECE9F0E0D491E8E8F0E055
:10015000C491CC23A1F081110E947500EC2FF0E036
:10016000EE0FFF1FE458FF4FA591B491EC91ED23E2
:1001700081E090E009F480E0DF91CF91089580E084
:1001800090E0FACF1F93CF93DF93282F30E0F9014F
:10019000E255FF4F8491F901E656FF4FD491F901E2
:1001A000EA57FF4FC491CC23A9F0162F81110E946A
:1001B0007500EC2FF0E0EE0FFF1FEE58FF4FA591FA
:1001C000B4918FB7F894EC91111108C0D095DE234B
:1001D000DC938FBFDF91CF911F910895DE2BF8CF75
:1001E000CF93DF9390E0FC01E656FF4F24918A57AE
:1001F0009F4FFC0184918823D1F090E0880F991FD4
:10020000FC01E859FF4FA591B491FC01EE58FF4F56
:10021000C591D49161110EC09FB7F8948C91E22FD3
:10022000E0958E238C932881E223E8839FBFDF91A2
:10023000CF9108958FB7F894EC91E22BEC938FBF98
:10024000F6CF3FB7F8948091050190910601A091F7
:100250000701B091080126B5A89B05C02F3F19F0F2
:100260000196A11DB11D3FBFBA2FA92F982F882736
:10027000BC01CD01620F711D811D911D42E0660F11
:10028000771F881F991F4A95D1F708958F929F92E3
:10029000AF92BF92CF92DF92EF92FF924B015C013F
:1002A0000E9421016B017C010E9421016C197D09D2
:1002B0008E099F09683E734081059105A8F321E0EE
:1002C000821A9108A108B10888EEC80E83E0D81EF2
:1002D000E11CF11C81149104A104B10429F7FF90E1
:1002E000EF90DF90CF90BF90AF909F908F90089548
:1002F00060E089E00E94C20060E08AE00C94C200E5
:10030000CF93C82F61E00E94C20064EF71E080E0EB
:1003100090E00E94460160E08C2F0E94C20064EFD2
:1003200071E080E090E0CF910C9446011F920F9213
:100330000FB60F9211242F933F938F939F93AF93F8
:10034000BF938091010190910201A0910301B091AE
:1003500004013091000123E0230F2D3758F5019659
:10036000A11DB11D20930001809301019093020112
:10037000A0930301B09304018091050190910601BF
:10038000A0910701B09108010196A11DB11D8093B4
:10039000050190930601A0930701B0930801BF9156
:1003A000AF919F918F913F912F910F900FBE0F9022
:1003B0001F90189526E8230F0296A11DB11DD2CFDC
:1003C000789484B5826084BD84B5816084BD85B530
:1003D000826085BD85B5816085BD80916E0081603C
:1003E00080936E00109281008091810082608093E2
:1003F00081008091810081608093810080918000E4
:100400008160809380008091B10084608093B1000E
:100410008091B00081608093B00080917A00846008
:1004200080937A0080917A00826080937A00809134
:100430007A00816080937A0080917A00806880934E
:100440007A001092C10060E082E00E94F00061E05A
:1004500085E00E94F00061E086E00E94F00061E02B
:1004600089E00E94F00061E08AE00E94F00060E014
:1004700085E00E94C20060E086E00E94C2000E9407
:10048000780100E010E00E949E00019771F461E0A5
:1004900089E00E94C20060E08AE00E94C200CFE0D2
:1004A000D0E00E949E00892B41F40E947801011542
:1004B000110549F30E940000E6CF85E090E00E941C
:1004C0008001219771F760E089E00E94C20061E03D
:1004D0008AE00E94C200CAE0D0E00E949E00892B00
:1004E00021F386E090E00E9480012197B1F70E94FD
:1004F00078010E949E000197D1F66AE070E080E0EA
:0C05000090E00E944601F5CFF894FFCF78
:00000001FF
