:100000000C9461000C9473000C9473000C947300B6
:100010000C9473000C9473000C9473000C94730094
:100020000C9473000C9473000C9473000C94730084
:100030000C9473000C9473000C9473000C94730074
:100040000C94B1010C9473000C9473000C94730025
:100050000C9473000C9473000C9473000C94730054
:100060000C9473000C94730000000000240027001F
:100070002A0000000000250028002B0000000000DE
:1000800023002600290004040404040404040202DA
:100090000202020203030303030301020408102007
:1000A0004080010204081020010204081020000012
:1000B0000008000201000003040700000000000027
:1000C000000011241FBECFEFD8E0DEBFCDBF21E07E
:1000D000A0E0B1E001C01D92A930B207E1F70E9493
:1000E000FB010C94ED020C940000833081F028F4A5
:1000F000813099F08230A9F008958730A9F08830D6
:10010000C9F08430B1F4809180008F7D03C080916C
:1001100080008F7780938000089584B58F7784BDA9
:10012000089584B58F7DFBCF8091B0008F77809349
:10013000B00008958091B0008F7DF9CFCF93DF9309
:10014000E0EBF0E08491ECE9F0E0D491E8E8F0E055
:10015000C491CC23A1F081110E947500EC2FF0E036
:10016000EE0FFF1FE458FF4FA591B491EC91ED23E2
:1001700081E090E009F480E0DF91CF91089580E084
:1001800090E0FACF1F93CF93DF93282F30E0F9014F
:10019000E255FF4F8491F901E656FF4FD491F901E2
:1001A000EA57FF4FC491CC23A9F0162F81110E946A
:1001B0007500EC2FF0E0EE0FFF1FEE58FF4FA591FA
:1001C000B4918FB7F894EC91111108C0D095DE234B
:1001D000DC938FBFDF91CF911F910895DE2BF8CF75
:1001E000CF93DF9390E0FC01E656FF4F24918A57AE
:1001F0009F4FFC0184918823D1F090E0880F991FD4
:10020000FC01E859FF4FA591B491FC01EE58FF4F56
:10021000C591D49161110EC09FB7F8948C91E22FD3
:10022000E0958E238C932881E223E8839FBFDF91A2
:10023000CF9108958FB7F894EC91E22BEC938FBF98
:10024000F6CF3FB7F8948091050190910601A091F7
:100250000701B091080126B5A89B05C02F3F19F0F2
:100260000196A11DB11D3FBFBA2FA92F982F882736
:10027000BC01CD01620F711D811D911D42E0660F11
:10028000771F881F991F4A95D1F708958F929F92E3
:10029000AF92BF92CF92DF92EF92FF926B017C01FF
:1002A0000E9421014B015C01C114D104E104F1045D
:1002B000B9F00E942101681979098A099B09683EF1
:1002C00073408105910580F321E0C21AD108E1084D
:1002D000F10888EE880E83E0981EA11CB11CE4CFC3
:1002E000FF90EF90DF90CF90BF90AF909F908F9056
:1002F000089560E089E00E94C20060E08AE00C940A
:10030000C200BF92CF92DF92EF92FF920F931F93A2
:10031000CF93DF93B82E8B01D0E0C0E06A01550F78
:10032000EE08FF08C017D10794F461E08B2D0E94FE
:10033000C200C701B6010E94460160E08B2D0E94F9
:10034000C200C701B6010E9446012196EBCFDF91A2
:10035000CF911F910F91FF90EF90DF90CF90BF90C2
:1003600008951F920F920FB60F9211242F933F936F
:100370008F939F93AF93BF9380910101909102015E
:10038000A0910301B09104013091000123E0230FFB
:100390002D3758F50196A11DB11D209300018093C2
:1003A000010190930201A0930301B0930401809195
:1003B000050190910601A0910701B09108010196F5
:1003C000A11DB11D8093050190930601A093070123
:1003D000B0930801BF91AF919F918F913F912F9161
:1003E0000F900FBE0F901F90189526E8230F0296CE
:1003F000A11DB11DD2CF789484B5826084BD84B52F
:10040000816084BD85B5826085BD85B5816085BD0F
:1004100080916E00816080936E00109281008091C7
:10042000810082608093810080918100816080934F
:100430008100809180008160809380008091B10074
:1004400084608093B1008091B00081608093B0009F
:1004500080917A00846080937A0080917A00826033
:1004600080937A0080917A00816080937A008091F5
:100470007A00806880937A001092C10060E082E088
:100480000E94F00061E085E00E94F00061E086E0FB
:100490000E94F00061E089E00E94F00061E08AE0E3
:1004A0000E94F00060E085E00E94C20060E086E00B
:1004B0000E94C2000E94790100E010E00E949E00AC
:1004C000019709F085C062E370E080E090E00E944F
:1004D00046010E949E00019709F073C061E089E027
:1004E0000E94C20060E08AE00E94C200CEE0D0E03C
:1004F0000E949E00892BE1F50E94790145E050E0C1
:10050000BE0185E090E00E94810181E0209711F515
:10051000811123C060E089E00E94C20061E08AE0AE
:100520000E94C200C9E0D0E00E949E00892B51F5D4
:100530000E94790145E050E0BE0186E090E00E9413
:10054000810145E050E061E070E086E090E00E94CB
:10055000810103C02197882359F20E949E000197D0
:1005600051F56AE070E080E090E00E944601F5CF2E
:1005700044EF51E061E070E085E090E00E9481018D
:1005800080E0C4CF44EF51E061E070E086E090E0AD
:100590000E9481012097F9F445E050E061E070E0AD
:1005A00086E090E00E9481010E94790168EE73E08C
:1005B00080E090E0DACF68EC70E080E090E00E94AC
:1005C00046010115110509F479CF0E94000076CF8C
:0E05D0000E947901F6CF2197A7CFF894FFCFB4
:00000001FF
