:100000000C9463000C948B000C948B000C948B006C
:100010000C948B000C948B000C948B000C948B0034
:100020000C948B000C948B000C948B000C94240B80
:100030000C948B000C948B000C948B000C948B0014
:100040000C94820A0C948B000C94F20A0C94CC0A47
:100050000C948B000C948B000C948B000C948B00F4
:100060000C94E00B0C948B00000000002300260091
:10007000290000000000240027002A0000000000E2
:10008000250028002B0004040404040404040202D4
:100090000202020203030303030301020408102007
:1000A0004080010204081020010204081020000012
:1000B0000008000201000003040700000000000027
:1000C0000000FF0CA51311241FBECFEFD8E0DEBF48
:1000D000CDBF13E0A0E0B1E0E2E9FDE202C005908F
:1000E0000D92A03DB107D9F726E0A0EDB3E001C025
:1000F0001D92A534B207E1F710E0C2E6D0E004C0DB
:100100002197FE010E947114C136D107C9F70E94E0
:10011000880D0C94BC160C9400008F929F92AF92A5
:10012000BF92FF920F931F93CF93DF93F09032060D
:100130002BE02F1508F44CC02091340608E512E09E
:10014000021B110927FD1395000F111F000F111F2E
:1001500020913306C8E8D0E0C21BD10927FDD39512
:10016000CC0FDD1FCC0FDD1F4E010D2E000CAA0899
:10017000BB089801012E000C440B550B28193909B6
:100180004A095B09DC010E94F51324EB30E040E0F2
:1001900050E00E94CB13820E931EA41EB51E8C1637
:1001A0009D062CF0E801801691060CF4E4012297DC
:1001B000CC0FDD1F2FB7F8948F2D90E0FC01EE0FD0
:1001C000FF1FE80FF91FE95FF94FD283C1832FBFEB
:1001D000DF91CF911F910F91FF90BF90AF909F90B3
:1001E0008F900895833081F028F4813099F0823027
:1001F000A9F008958730A9F08830C9F08430B1F4AF
:10020000809180008F7D03C0809180008F778093E4
:100210008000089584B58F7784BD089584B58F7D5F
:10022000FBCF8091B0008F778093B00008958091CC
:10023000B0008F7DF9CF1F93CF93DF93282F30E04D
:10024000F901E255FF4F8491F901E656FF4FD49131
:10025000F901EA57FF4FC491CC23A9F0162F811161
:100260000E94F200EC2FF0E0EE0FFF1FE458FF4F6A
:10027000A591B4918FB7F894EC91111108C0D09565
:10028000DE23DC938FBFDF91CF911F910895DE2B8A
:10029000F8CFCF93DF9390E0FC01E656FF4F249117
:1002A0008A579F4FFC0184918823C9F090E0880F02
:1002B000991FFC01EE58FF4FA591B491FC01E45841
:1002C000FF4FC591D49161110DC09FB7F8948C91E7
:1002D000209582238C938881282328839FBFDF91D8
:1002E000CF910895623051F49FB7F8943C91822FDA
:1002F000809583238C93E8812E2BEFCF8FB7F894D2
:10030000EC912E2B2C938FBFEACF3FB7F8948091BE
:100310005A0590915B05A0915C05B0915D0526B5ED
:10032000A89B05C02F3F19F00196A11DB11D3FBF2D
:10033000BA2FA92F982F8827BC01CD01620F711DFC
:10034000811D911D42E0660F771F881F991F4A95F6
:10035000D1F708958F929F92AF92BF92CF92DF9282
:10036000EF92FF924B015C010E9485016B017C01C1
:100370000E9485016C197D098E099F09683E7340B2
:1003800081059105A8F321E0821A9108A108B1081E
:1003900088EEC80E83E0D81EE11CF11C8114910484
:1003A000A104B10429F7FF90EF90DF90CF90BF90A8
:1003B000AF909F908F900895089508950895AF92FB
:1003C000BF92CF92DF92EF92FF920F931F93CF9342
:1003D000DF936C017B018B01040F151FEB015E01A4
:1003E000AE18BF08C017D10759F06991D601ED9139
:1003F000FC910190F081E02DC6010995892B79F7D8
:10040000C501DF91CF911F910F91FF90EF90DF9089
:10041000CF90BF90AF900895FC01538D448D252F50
:1004200030E0842F90E0821B930B541710F0CF968E
:10043000089501970895FC01918D828D981761F0C0
:10044000A28DAE0FBF2FB11D5D968C91928D9F5FD7
:100450009F73928F90E008958FEF9FEF0895FC01B6
:10046000918D828D981731F0828DE80FF11D858D69
:1004700090E008958FEF9FEF0895FC01918D228DFC
:10048000892F90E0805C9F4F821B91098F73992781
:1004900008958EE595E00E943D0221E0892B09F444
:1004A00020E0822F089580E090E0892B29F00E94BF
:1004B000490281110C9400000895FC01A48DA80F3D
:1004C000B92FB11DA35ABF4F2C91848D90E0019696
:1004D0008F739927848FA689B7892C93A089B189B6
:1004E0008C91837080648C93938D848D981306C057
:1004F0000288F389E02D80818F7D80830895EF92BB
:10050000FF920F931F93CF93DF93EC0181E0888FCD
:100510009B8D8C8D98131AC0E889F989808185FF9D
:1005200015C09FB7F894EE89FF896083E889F9893F
:1005300080818370806480839FBF81E090E0DF9141
:10054000CF911F910F91FF90EF900895F62E0B8D94
:1005500010E00F5F1F4F0F731127E02E8C8D8E114F
:100560000CC00FB607FCFACFE889F989808185FFB6
:10057000F5CFCE010E945D02F1CFEB8DEC0FFD2F88
:10058000F11DE35AFF4FF0829FB7F8940B8FEA8971
:10059000FB8980818062CFCFCF93DF93EC01888D80
:1005A0008823B9F0AA89BB89E889F9898C9185FDEE
:1005B00003C0808186FD0DC00FB607FCF7CF8C917C
:1005C00085FFF2CF808185FFEDCFCE010E945D02D5
:1005D000E9CFDF91CF91089520913D04260F332775
:1005E000331F21323105ECF420916104FC0190E0CD
:1005F00080E0243069F082E00895A0913D042191CB
:10060000AC01435E5B4FA40FB52FB11D2C93019637
:10061000861798F380913D04680F60933D0480E055
:10062000089581E008951092610481E0809363044D
:100630001092620461E082E10E941B0161E083E1AB
:100640000E941B01E9EBF0E080818E7F8083808136
:100650008D7F808388E48093B80085E48093BC001C
:100660000895CF93DF9391E090931C048823B9F011
:10067000C091B800D091BA008091BC008A7B809371
:10068000BC0060E082E10E941B0160E083E10E9407
:100690001B010E941303D093BA00C093B800DF91EE
:1006A000CF9108950895E0918F0480918E04E8170A
:1006B00030F4F0E0E950FC4F808190E008958FEF36
:1006C0009FEF089590918F0480918E042FEF3FEF5C
:1006D000981748F4E92FF0E0E950FC4F208130E012
:1006E0009F5F90938F04C901089580918E0490912B
:1006F0008F04891B990B0895CF92DF92EF92FF929E
:100700000F931F93CF93DF937C01CB018A0120913C
:10071000F603222389F0EB016B01C40ED51ECC1524
:10072000DD0569F06991D701ED91FC910190F081AF
:10073000E02DC7010995F3CF642F0E94EC02C80198
:10074000DF91CF911F910F91FF90EF90DF90CF90AD
:100750000895CF93DF931F92CDB7DEB769832091C1
:10076000F6032223F9F020918C04203258F021E086
:1007700030E0FC013383228390E080E00F90DF9132
:10078000CF91089580918D04E82FF0E0EA52FC4F5C
:10079000998190838F5F80938D0480938C0481E096
:1007A00090E0ECCF61E0CE0101960E94EC02F7CF21
:1007B000CF92DF92EF92FF920F931F93CF93DF932D
:1007C000FC01C48121E02093F603C093D50310926D
:1007D0008D0410928C048385682B8BEF95E00E942A
:1007E000A903D0918C04D13208F092C00E948501F7
:1007F0006B017C0180916104811165C082E080936E
:10080000610481E0809363048FEF80936004109211
:100810008504D0938404A6EDB3E0E4E6F4E080E040
:10082000D81385C01092860480918604CC0FC82B03
:10083000C093860480916204813009F07CC01092DC
:1008400062040E9485016B017C0180918604809383
:10085000BB008091180490911904A0911A04B091E2
:100860001B04892B8A2B8B2B99F00E948501009108
:1008700018041091190420911A0430911B046C196A
:100880007D098E099F090617170728073907E0F128
:100890008091BC0083FDD9CF85EC8093BC000E9481
:1008A00085016B017C0180916104823009F445C0AF
:1008B000809160048F3F61F180916004803241F14A
:1008C0008091600425C08091180490911904A09132
:1008D0001A04B0911B04892B8A2B8B2B09F48ACF25
:1008E0000E948501009118041091190420911A04A6
:1008F00030911B046C197D098E099F090617170793
:100900002807390708F076CF809117040E94310339
:1009100010928D0410928C041092F603DF91CF9107
:100920001F910F91FF90EF90DF90CF9008959D91D0
:1009300091938F5F75CF85EEB0CF80911804909121
:100940001904A0911A04B0911B04892B8A2B8B2BBC
:1009500009F4A9CF0E94850100911804109119048F
:1009600020911A0430911B046C197D098E099F098E
:10097000061717072807390708F095CFC5CF90E06D
:1009800080E00895882359F0813061F0823069F069
:10099000833071F0843079F08BE891E008958CE435
:1009A00091E0089588E591E0089586E691E0089544
:1009B0008DE791E0089581E791E00895CF93C82FE6
:1009C000682F85E00E941B016C2F86E00E941B01AE
:1009D0006C2F87E00E941B016C2F88E00E941B0196
:1009E0006C2F8CE0CF910C941B01E0910001EF3F44
:1009F00059F086E2E89FF0011124E057FB4F818116
:100A0000882319F08281089581E008950F931F9340
:100A1000CF938C01C62F0E94D8036C2F6460C8014D
:100A20000E94D8036C2F6B7FC8010E94D80383EC0F
:100A300090E00197F1F7CF911F910F9108950F93D7
:100A40001F93CF93DF938C01D62FC42F607F642B2D
:100A50000E94060580E1D89FB00111246C2BC801CB
:100A6000DF91CF911F910F910C940605CF93DF93E7
:100A7000CDB7DEB728970FB6F894DEBF0FBECDBF57
:100A800098E0EAE0F1E0DE01119601900D929A956E
:100A9000E1F790913D06981708F48FEF90E0880FEA
:100AA000991F21E030E02C0F3D1F820F931FFC01A6
:100AB0006081606840E085E396E028960FB6F89480
:100AC000DEBF0FBECDBFDF91CF910C941F0541E07B
:100AD0000E941F0581E090E00895FB01DC018D91EB
:100AE0009C91009761F0608171816115710539F009
:100AF000448155810E94851621E0892B09F020E070
:100B0000822F0895CF93DF93FC0124813581232B1D
:100B100071F0C081D1816AE370E0CE010E946A1653
:100B2000009729F08C1B9D0BDF91CF9108958FEFDB
:100B30009FEFFACFFB0101900020E9F73197AF0159
:100B4000461B570BDC01ED91FC910280F381E02DF7
:100B50000994CF93DF93D0E0C0E0009731F0BC015F
:100B60008EE595E00E949A05EC0167E971E08EE55B
:100B700095E00E949A058C0F9D1FDF91CF910895FB
:100B80001092500590E080E00E948D008AE991E08B
:100B90000C94A90581E0809350058AE590E00E94BD
:100BA0008D0086EA91E00C94A9056115710511F09C
:100BB0000C949A0590E080E008950F931F93CF93D3
:100BC000DF938C01EB0140E061E085E396E00E9459
:100BD0001F058BE39FE10197F1F780E00E94360546
:100BE000B80185E396E00E94D50581E00E943605B4
:100BF000BE0185E396E0DF91CF911F910F910C9498
:100C0000D50561E082E00E941B0160E084E00E9463
:100C10001B0160E083E00E941B0160EB71E08DEB43
:100C200091E00E94DD058BEC91E00C94A905CF9337
:100C3000DF93EC0110924F058FEF8093000181E06C
:100C400080934E0560E082E00E941B0160E083E03B
:100C50000E941B0161E084E00E941B01BE0181ED46
:100C600091E00E94DD056FED71E08EE595E00E9458
:100C7000D505CE01DF91CF910C94A905FC018081AF
:100C80009181009711F00C9413150895FC012481B3
:100C90003581232B39F421E0FB018081882349F041
:100CA00020E007C0808191810E94751621E0892B88
:100CB000B9F7822F0895AF92BF92CF92DF92EF9251
:100CC000FF920F931F93CF93DF93DC01CD90DC90C5
:100CD0001197C114D10439F01496CD91DC918C0197
:100CE0007601209761F4DF91CF911F910F91FF90D2
:100CF000EF90DF90CF90BF90AF90089575015701AE
:100D0000BFEFAB1ABB0AF7018081082E000C990BCC
:100D10000E94A913892B91F72197CC0DDD1D8881A5
:100D2000082E000C990B0E94A913892B29F0CE15CF
:100D3000DF0510F02197F3CFAE014F5F5F4F4E19E3
:100D40005F09D80115965C934E931497CE14DF0477
:100D500020F4B701C6010E946116D801ED91FC9103
:100D6000119714968D919C91E80FF91F1082BBCFBB
:100D7000CF93DF93EC010E945B066CE471E0CE013F
:100D80000E944606811120C068E571E0CE010E94F4
:100D9000460681111BC066E671E0CE010E94460640
:100DA000811116C06DE771E0CE010E9446068111E7
:100DB00011C061E771E0CE010E94460681110CC0AE
:100DC0008FEFDF91CF91089580E0FBCF81E0F9CFE5
:100DD00082E0F7CF83E0F5CF84E0F3CFCF93DF93CA
:100DE000FC01C081D181209761F08991882349F06D
:100DF000082E000C990B0E945916FE013197808332
:100E0000F4CFDF91CF9108950F931F93CF93DF938A
:100E1000EC0188819981009759F02A813B8126173E
:100E2000370730F081E0DF91CF911F910F91089546
:100E30008B016F5F7F4F0E949C15009759F099833B
:100E400088831B830A832C813D81232B59F7FC0166
:100E50001082E8CF80E0E7CFEF92FF920F931F93CD
:100E6000CF93DF93EC017B018A01BA010E94040752
:100E700028813981811114C02115310519F0C9016A
:100E80000E941315198218821D821C821B821A82ED
:100E9000CE01DF91CF911F910F91FF90EF900895B8
:100EA0001D830C83B701C9010E947E16F1CFFB019F
:100EB000DC0111961C921E9213961C921E921297A0
:100EC00015961C921E9214978617970749F0608119
:100ED00071816115710521F0448155810C942C07B5
:100EE0000895FC01118210821382128215821482ED
:100EF000FB0101900020E9F73197AF01461B570B2A
:100F00000C942C07AF92BF92CF92DF92EF92FF9298
:100F10000F931F93CF93DF93EC016B015A0179017B
:100F20002417350720F48B2D5901E42EF82E69E99A
:100F300071E0CE010E947107D60114960D911C91AB
:100F4000A016B10628F5E016F10608F48701D601CF
:100F5000ED91FC911197E00FF11FF08010826D91DF
:100F60007C916A0D7B1D61157105F1F0FB0101900B
:100F70000020E9F73197AF01461B570BCE010E94C5
:100F80002C07F60180819181080F191FD801FC926E
:100F9000CE01DF91CF911F910F91FF90EF90DF90E5
:100FA000CF90BF90AF90089588819981009711F0FC
:100FB0000E941315198218821D821C821B821A82BC
:100FC000E0CF0F931F93CF93DF93CDB7DEB72C976E
:100FD0000FB6F894DEBF0FBECDBF8B01BC01CE01B2
:100FE00001960E945707B801CE0107960E9471072B
:100FF000CE0101960E94EE06CE0107960E94EE06F3
:101000002D813E818B859C8510E02817390740F0A3
:10101000BE01695F7F4FCE0101960E946D05182FBA
:10102000CE0107960E943E06CE0101960E943E0622
:1010300081E0111101C080E02C960FB6F894DEBF5C
:101040000FBECDBFDF91CF911F910F91089585ED18
:101050008093BC008091180490911904A0911A0407
:10106000B0911B040796A11DB11D23E0B695A7956D
:10107000979587952A95D1F72091BC0024FD03C050
:1010800010926104089540911804509119046091E0
:101090001A0470911B04452B462B472B69F30097CC
:1010A000A105B10541F02AE22A95F1F700C00197A8
:1010B000A109B109E1CF809117040C943103CF92BB
:1010C000DF92EF92FF920F931F93CF93DF93EB0189
:1010D0007B0124E2E20EF11C8B016C01C61AD70AD7
:1010E000C601800F911F0E94B513F80181938F01F3
:1010F000EE15FF05A9F7CE01DF91CF911F910F915A
:10110000FF90EF90DF90CF9008950F931F93CF93B0
:10111000DF93CDB7DEB7A4970FB6F894DEBF0FBE4E
:10112000CDBFE0910101EF3F09F456C08FEF9FEF73
:10113000E53038F4F0E0EE0FFF1FEE5EFE4F8081E9
:101140009181BE016F5F7F4F0E945F088B8182306B
:1011500009F042C02FB7F894809156059091570539
:10116000A0915805B09159052FBF4091D1035091DE
:10117000D2036091D3037091D4038C019D01041BB1
:10118000150B260B370BB901A801423C51406105F4
:10119000710510F18093D1039093D203A093D303F0
:1011A000B093D4030091D00311E010271093D00323
:1011B000612F85E00E941B01602F86E00E941B01C9
:1011C000612F87E00E941B01602F88E00E941B01B5
:1011D000612F8CE00E941B01A4960FB6F894DEBF2D
:1011E0000FBECDBFDF91CF911F910F910895EF9268
:1011F000FF920F931F93CF93DF93CDB7DEB7A497E2
:101200000FB6F894DEBF0FBECDBF182F8FEF9FEF44
:10121000153040F4E12FF0E0EE0FFF1FEE5EFE4FC1
:1012200080819181BE016F5F7F4F0E945F080981BD
:10123000812F0E94C2047C010234E9F081E0809396
:101240004E0561E084E00E941B01B7018AE092E054
:101250000E94DD058AE192E00E94A905A4960FB6DE
:10126000F894DEBF0FBECDBFDF91CF911F910F91DC
:10127000FF90EF9008951093010110924E0560E0E9
:1012800084E00E941B0161E082E00E941B0161E09A
:101290008A81813009F060E08AE00E941B018B8125
:1012A0008130A9F40E94DE048A816DEE71E0813004
:1012B00011F06BEF71E0CE0104960E94DD0565E24E
:1012C00072E08EE595E00E94D505C701C5CF882361
:1012D00049F31092D0031092D1031092D2031092CE
:1012E000D3031092D4030E948508DECFEF92FF92C1
:1012F0000F931F93CF93DF937C018B010E945B06BA
:10130000F701C481D581209759F4F8011082F801C2
:1013100010A2DF91CF911F910F91FF90EF90089550
:10132000C032D10510F0C0E2D0E0F70160817181D8
:10133000AE01C8010E949316C00FD11F1882E7CFDB
:101340000F931F93CF93DF9300D000D000D0CDB781
:10135000DEB78B016EE272E0882391F06CE372E0FD
:10136000813071F06CE472E0823051F069E572E036
:10137000833031F068E672E0843011F068E772E0A3
:10138000CE0101960E947107B801CE0101960E941C
:101390007609CE0101960E943E0626960FB6F89475
:1013A000DEBF0FBECDBFDF91CF911F910F9108958A
:1013B0009F92AF92BF92CF92DF92EF92FF920F93E4
:1013C0001F93CF93DF93CDB7DEB7AA970FB6F894EC
:1013D000DEBF0FBECDBF182F82E489838BAD8A8319
:1013E0008CAD8B83BE01635C7F4FCE0185960E94DE
:1013F0007107BE016C5F7F4FCE0185960E94760912
:10140000CE0185960E943E06CC24CA94DC2C153071
:1014100041F0E12FF0E0EE0FFF1FEE5EFE4FC080C7
:10142000D180CE0101967C0110E000E0F70191909F
:101430007F015601A00EB11EC5010E94B51398167A
:1014400021F0692DC5010E94BD130F5F1F4F0432AB
:10145000110561F7AA960FB6F894DEBF0FBECDBF97
:10146000DF91CF911F910F91FF90EF90DF90CF9080
:10147000BF90AF909F9008951F93CF93DF93CDB708
:10148000DEB7AC970FB6F894DEBF0FBECDBF182FF6
:1014900081E089838A838B836C834D83B901CE017C
:1014A00087960E947107BE016A5F7F4FCE018796C3
:1014B0000E947609CE0187960E943E068DB79EB7A0
:1014C00086970FB6F8949EBF0FBE8DBFADB7BEB75F
:1014D000119686E2FE01319601900D928A95E1F710
:1014E000812F0E94D8090FB6F894DEBF0FBECDBF82
:1014F000AC960FB6F894DEBF0FBECDBFDF91CF9193
:101500001F9108951F920F920FB60F9211242F93DF
:101510003F938F939F93AF93BF9380915605909184
:101520005705A0915805B09159053091550523E014
:10153000230F2D3758F50196A11DB11D2093550598
:101540008093560590935705A0935805B09359057D
:1015500080915A0590915B05A0915C05B0915D0565
:101560000196A11DB11D80935A0590935B05A09330
:101570005C05B0935D05BF91AF919F918F913F91B5
:101580002F910F900FBE0F901F90189526E8230FF4
:101590000296A11DB11DD2CF1F920F920FB60F92CE
:1015A00011242F933F934F935F936F937F938F9368
:1015B0009F93AF93BF93EF93FF938EE595E00E94C7
:1015C0005D02FF91EF91BF91AF919F918F917F91BC
:1015D0006F915F914F913F912F910F900FBE0F90A0
:1015E0001F9018951F920F920FB60F9211242F93F0
:1015F0008F939F93EF93FF93E0916E05F0916F05AA
:101600008081E0917405F091750582FD1BC0908189
:10161000809177058F5F8F7320917805821741F055
:10162000E0917705F0E0E25AFA4F958F80937705C5
:10163000FF91EF919F918F912F910F900FBE0F907F
:101640001F9018958081F4CF1F920F920FB60F92C2
:1016500011242F933F934F935F936F937F938F93B7
:101660009F93AF93BF93CF93DF93EF93FF938091BB
:101670008704C0912B06D0E087FF24C0109285001C
:1016800010928400809187048F5F809387048091FB
:101690008704082E000C990B8C179D0724F4809169
:1016A00087048C30C4F18091840090918500049669
:1016B00080349C4908F47AC0809184009091850020
:1016C000049676C080918704082E000C990B8C1725
:1016D0009D07C4F6E09187048E2FEE0F990BFC0155
:1016E000EE0FFF1FE80FF91FE95FF94F808186FFBA
:1016F000C9CFE09187048E2FEE0F990BFC01EE0FFE
:10170000FF1FE80FF91FE95FF94F808160E08F73D9
:101710000E941B01B7CF2091840030918500E09199
:1017200087048E2FEE0F990BFC01EE0FFF1FE80FC1
:10173000F91FE95FF94F81819281820F931F909386
:10174000890080938800E09187048E2FEE0F990B1B
:10175000FC01EE0FFF1FE80FF91FE95FF94F8081D1
:1017600086FF11C0E09187048E2FEE0F990BFC01CC
:10177000EE0FFF1FE80FF91FE95FF94F808161E06D
:101780008F730E941B01FF91EF91DF91CF91BF9169
:10179000AF919F918F917F916F915F914F913F9109
:1017A0002F910F900FBE0F901F90189580E49CE929
:1017B00090938900809388008FEF80938704E3CF14
:1017C0001F920F920FB60F9211242F933F934F93B6
:1017D0005F936F937F938F939F93AF93BF93EF9399
:1017E000FF938091B900887F803609F44AC0F0F5F4
:1017F000883209F4A7C018F5803109F49BC0B8F409
:10180000882309F4F9C0883009F494C0FF91EF915E
:10181000BF91AF919F918F917F916F915F914F9108
:101820003F912F910F900FBE0F901F901895883108
:1018300009F488C0803251F78093600414C080346A
:1018400009F49DC040F48033B9F38833F9F68093EE
:10185000600485ECB0C0803509F485C0883509F492
:1018600096C0883499F60E942708D0CF883909F4A9
:101870008CC038F5883729F050F4883611F080375D
:1018800029F683E08093610410925F0457C0883882
:1018900009F47BC0803919F0803809F0B7CF809106
:1018A0005F04803208F071C0E0915F0481E08E0F28
:1018B00080935F048091BB00F0E0E15CFB4F80838C
:1018C0003DC0803B39F0E0F4803A09F479C0883AB1
:1018D00009F09CCF84E08093610410923E04109242
:1018E0003D04E0918A04F0918B04099580913D04B8
:1018F00081110FC081E080933D0410921D0409C046
:10190000803C09F4A6CF883C09F4A3CF883B09F0BA
:101910007DCFE0913E0481E08E0F80933E04F0E0A5
:10192000E35EFB4F80818093BB0090913E048091E9
:101930003D0429C0809186048093BB0085EC809390
:10194000BC0064CF9091850480918404981758F569
:10195000E091850481E08E0F80938504F0E0EC59DE
:10196000FB4F8081E9CFE091850481E08E0F809369
:1019700085048091BB00F0E0EC59FB4F808390918F
:101980008504809184049817C8F285E8D8CFE09147
:10199000850481E08E0F809385048091BB00F0E088
:1019A000EC59FB4F80838091630481115CCF81E00F
:1019B0008093620484EA8093BC001092610426CF75
:1019C00085EC8093BC001092610480915F048032AA
:1019D00030F4E0915F04F0E0E15CFB4F1082609135
:1019E0005F0470E0E0918804F09189048FE394E053
:1019F000099510925F040ACF1092600434CF1092C0
:101A000061051092600588EE93E0A0E0B0E080935D
:101A1000620590936305A0936405B093650520E289
:101A200031E030935F0520935E0525EC30E0309384
:101A30006B0520936A0524EC30E030936D0520930C
:101A40006C0520EC30E030936F0520936E0521EC9F
:101A500030E0309371052093700522EC30E0309334
:101A600073052093720526EC30E0309375052093C2
:101A700074051092770510927805109279051092EE
:101A80007A051092FE051092FD058093FF05909354
:101A90000006A0930106B093020682E391E09093C2
:101AA000FC058093FB05109238061092370684E4FB
:101AB00091E0909336068093350687E2809339064D
:101AC00080E180933E0682E080933F0610924006BC
:101AD00080912B068C30C0F491E0980F90932B06E8
:101AE0008093320690E0FC01EE0FFF1FE80FF91F14
:101AF000E95FF94F88EB9BE09283818369E971E0AC
:101B00008CE296E00C9471078FEF80933206F6CF4B
:101B1000CF93DF93CDB7DEB7CE54D1090FB6F8948B
:101B2000DEBF0FBECDBF789484B5826084BD84B51E
:101B3000816084BD85B5826085BD85B5816085BDC8
:101B400080916E00816080936E0010928100809180
:101B50008100826080938100809181008160809308
:101B60008100809180008160809380008091B1002D
:101B700084608093B1008091B00081608093B00058
:101B800080917A00846080937A0080917A008260EC
:101B900080937A0080917A00816080937A008091AE
:101BA0007A00806880937A001092C10060E080E043
:101BB0000E94490161E081E00E94490161E082E008
:101BC0000E94490161E083E00E94490161E084E0F4
:101BD0000E94490161E085E00E94490161E086E0E0
:101BE0000E94490161E087E00E94490161E088E0CC
:101BF0000E94490161E08AE00E94490162E08BE0B5
:101C00000E94490161E08CE00E944901E0916E056B
:101C1000F0916F0582E08083E0916A05F0916B0599
:101C20001082E0916C05F0916D058FEC808310922D
:101C30007605E0917205F091730586E08083E0916E
:101C40007005F0917105808180618083E09170055D
:101C5000F0917105808188608083E0917005F0913A
:101C60007105808180688083E0917005F091710535
:101C700080818F7D8083809132068C3008F051C046
:101C800061E089E00E94490180913206282F30E00E
:101C9000F901EE0FFF1FE20FF31FE95FF94F90818B
:101CA000907C9960908310923306109234062CE059
:101CB000622F0E946514829FB001112430E020E061
:101CC000AB01420F531FFA01EE0FFF1FE40FF51F88
:101CD000E95FF94F908196FD16C02F5F3F4F2C3082
:101CE000310571F781110FC01092800082E080935E
:101CF00081001092850010928400B19A80916F004B
:101D0000826080936F00E09132068E2F90E0FC019C
:101D1000EE0FFF1FE80FF91FE95FF94F8081806424
:101D200080830E94C00510928F0410928E0410923E
:101D30008D0410928C040E9413038CED91E090931B
:101D40008B0480938A048DED91E0909389048093B5
:101D5000880410923A0680913F06823018F098E08D
:101D600090933A0680933D0662E370E080E090E055
:101D70000E94AA016091400685E396E00E94D80384
:101D800068EE73E080E090E00E94AA0160E385E3E2
:101D900096E00E9406050BE416E4C8010197F1F7EE
:101DA00060E385E396E00E940605C8010197F1F71C
:101DB00060E385E396E00E94060583E592E00197E3
:101DC000F1F760E285E396E00E94060560913A062D
:101DD000606240E085E396E00E941F0584E0809306
:101DE0003B0640E06CE085E396E00E941F0540E082
:101DF00061E085E396E00E941F050BE31FE1C80147
:101E00000197F1F782E080933C0640E066E085E3CD
:101E100096E00E941F0540E062E085E396E00E94A4
:101E20001F05C8010197F1F788E08093400660E044
:101E300085E396E00E94D8030E940106BE016F5F11
:101E40007F4F80E990E00E945F088981823419F118
:101E50002EE232E042E061E080E00E943C0A2CE3A6
:101E600032E041E060E081E00E943C0A2CE432E094
:101E700040E060E082E00E943C0A29E532E041E077
:101E800061E083E00E943C0A28E632E040E060E046
:101E900084E00E943C0A84E00E94F708DD24D39489
:101EA00016E28EE595E00E943D02181619060CF028
:101EB000D3C38EE595E00E941B028D3091F38A30EA
:101EC00009F0A5C36CE276E0CE01875B9F4F0E94CC
:101ED0005707BE01675B7F4FCE018B960E94570765
:101EE00064E872E0CE0185960E9471078FA598A9DB
:101EF000892B09F47BC0EBA4FCA46DA17EA1C701D2
:101F00000E94A216009709F471C09C012E193F0986
:101F10007901CE0185960E943E06F7FC6BC09701C1
:101F200050E040E0BE01655D7F4FCE018D5B9F4F6D
:101F30000E948207CE018B960E943E06CE018D5BE9
:101F40009F4F0E945B0629968EAD9FAD2997892BE6
:101F5000D1F167E872E0CE018D5B9F4F0E9446068B
:101F6000882309F460C0D0924F0510924E058FEF80
:101F70008093000120E9E22E24E0F22E00E0F70138
:101F800010821182128213821482B7016B5F7F4F1D
:101F9000802F0E94A0090F5FF6E2EF0EF11C0530C2
:101FA00071F760E084E00E941B0160E082E00E9423
:101FB0001B0160E972E08EE992E00E94DD0589EA8A
:101FC00092E00E94A905CE018D5B9F4F0E943E06C4
:101FD000CE01875B9F4F0E943E0650E040E069E9DA
:101FE00071E08CE296E00E942C075BCFEE24EA942D
:101FF000FE2C8FCF8BA59CA525969FAF8EAF2597E6
:102000008DA59EA527969FAF8EAF27978FA598A9E0
:1020100029969FAF8EAF29971CA61BA61EA61DA6AC
:1020200018AA1FA687CF80914F05BE016D5B7F4F19
:10203000882309F482C2CE01CD960E94570766EB31
:1020400072E0CE01CD960E944606882309F475C041
:102050000E94F504811105C08FEB92E00E941706E3
:1020600067C090E9A92E94E0B92EF12CE12C80E014
:10207000F5010081002309F11E9DF0011F9DF00D67
:102080001124E057FB4F2DB73EB7265231090FB64A
:10209000F8943EBF0FBE2DBFADB7BEB71196812FCE
:1020A00001900D928A95E1F78E2D0E94D8090FB606
:1020B000F894DEBF0FBECDBF802F5FEFE51AF50AA3
:1020C00096E2A90EB11CE5E0EE16F10489F6811145
:1020D00003C08FEC92E0C2CF10924F058FEF809338
:1020E00000018DED92E00E94A90560E084E00E946D
:1020F0001B0103E061E083E00E941B0164EB70E0E0
:1021000080E090E00E94AA0160E083E00E941B0151
:1021100064EB70E080E090E00E94AA01015051F76A
:1021200067EE72E080EF92E00E94DD050E940106FA
:10213000CE01CD960E943E0646CFBE01635C7F4F26
:10214000CE0185960E945707CE0185960E94B8065B
:10215000082FCE0185960E943E060F3FA1F00E94F7
:10216000F504882309F478CF00930001109FB00193
:102170001124FB01E057FB4FD0826B567B4F802F21
:102180000E94A009D5CFF0900001FFEF8EEF92E002
:10219000FF1609F463CFBE01635C7F4FCE018596C5
:1021A0000E9457076FE073E0CE0185960E94E10719
:1021B000082FCE0185960E943E06BE01635C7F4FCC
:1021C000CE01002309F4BEC0C7960E945707CE0176
:1021D000C7960E9482052BAD3CADAC014F5F5F4FAF
:1021E000BE01695C7F4FCE01C1960E948207CE017D
:1021F000C1960E945B066FE173E0CE0185960E9456
:1022000071072DA93EA989A59AA52817390708F4B1
:1022100084C0BE016B5D7F4FCE01C1960E946D05EB
:10222000882309F47AC06FE173E0CE018B960E9497
:102230007107EDA8FEA82FA538A9E216F306B8F09D
:1022400089A99AA9009799F06BA57CA561157105DC
:1022500071F0A701421B530B840F951F0E94751646
:10226000892B29F401E052E0E516F10408F400E0BE
:10227000CE018B960E943E06CE0185960E943E06B8
:10228000002349F12DA93EA92150310941E050E038
:10229000BE016F5C7F4FCE0185960E94820789A99F
:1022A0009AA90097F1F16DA17EA161157105B9F1AF
:1022B0004BA95CA929A53AA54217530780F10E94B2
:1022C0007E1689A59AA59EAB8DAB1AA619A6CE013E
:1022D00085960E943E06E0900001E19E7001112467
:1022E000C7018B569B4F7C01BE016F5C7F4FCE01B7
:1022F00085960E945707B701CE0185960E94760900
:10230000CE0185960E943E06CE01C1960E943E06F1
:10231000CE01C7960E943E060BCF00E0ADCF0E94D3
:1023200013158DA19EA19AAB89AB8FA198A59CABEB
:102330008BAB89A59AA59EAB8DAB1EA21DA218A63C
:102340001FA2C3CF85960E94570761E273E0CE01BA
:1023500085960E94E107082FCE0185960E943E06D1
:10236000BE01635C7F4FCE01002309F44AC08B9607
:102370000E945707CE018B960E9482052FA538A98F
:10238000AC014F5F5F4FBE01655D7F4FCE0185960B
:102390000E948207CE0185960E945B06CE0185963B
:1023A0000E94EE0668EF71E0CE0185960E94460617
:1023B000882399F01F9DF0011124E057FB4FD38231
:1023C0001F9DF0011124E057FB4FD182CE0185966D
:1023D0000E943E06CE018B969DCF66E072E0CE0154
:1023E00085960E944606882339F01F9DF00111242E
:1023F000E057FB4F1382E4CF8DE293E00E94170673
:10240000E5CFC1960E94570761E473E0CE01C19603
:102410000E94E107082F811126C0BE01635C7F4F37
:10242000CE018B960E94570768E473E0CE018B962D
:102430000E94E107082F811112C0BE01635C7F4F2B
:10244000CE0185960E9457076EE473E0CE01859613
:102450000E94E107082FCE0185960E943E06CE011C
:102460008B960E943E06CE01C1960E943E068BE7E7
:1024700093E0002309F4F2CDBE01635C7F4FCE01EF
:102480008B960E945707CE018B960E9482052FA53E
:1024900038A9AC014F5F5F4FBE01655D7F4FCE0134
:1024A00085960E948207CE0185960E945B06CE012A
:1024B00085960E94EE0668EF71E0CE0185960E9437
:1024C0004606882371F01F9DD0011124A057BB4FF1
:1024D0001496DC921F9DF0011124E057FB4FD2822D
:1024E00075CF66E072E0CE0185960E94460688238D
:1024F00041F01F9DD0011124A057BB4F14961C9290
:10250000E9CF64E573E0CE0185960E94460681110D
:1025100008C061E673E0CE0185960E9446068823D6
:1025200049F01F9DD0011124A057BB4F82E01496A3
:102530008C93D0CF8CE693E061CFCE018B960E9436
:102540005707BE01655D7F4FCE0185960E945707F4
:10255000CE0185960E94B806082FCE0185960E946E
:102560003E060F3F31F0802F0E94F708CE018B9678
:10257000E1CD6AE873E0CE018B960E94460688237F
:1025800009F161E973E08EE595E00E94D50580913F
:1025900001010E94C204BC018EE595E00E94D505B0
:1025A0006DE173E08EE595E00E94D50580914E05C2
:1025B000811105C084EE92E00E94A905D7CF8AEC74
:1025C00093E0FACF69E973E0CE018B960E9446064C
:1025D000882319F00E94CA05C9CF66EA73E0CE01CC
:1025E0008B960E944606882319F00E94C005BECF34
:1025F000D0924E0561E084E00E941B0164EB73E021
:102600008EEB93E00E94DD0586EC93E0D5CF8DA3A1
:102610001EA2E0903006F09031069FEFE91AF90A09
:10262000B7018CE296E00E940407882309F439CCB4
:1026300020912C0630912D06809130069091310624
:10264000BE016B5D7F4F820F931F0E947E16F0923A
:102650003106E092300625CCE9EBF0E08491E5EA22
:10266000F0E00491E1E9F0E01491112309F467C06E
:1026700081110E94F200E12FF0E0EE0FFF1FE859F8
:10268000FF4FA591B491EC91E02331E020E009F4F3
:1026900030E0832F922F182F117020910301121711
:1026A00099F02FB7F89440915605509157056091D5
:1026B0005805709159052FBF40935105509352050D
:1026C00060935305709354052FB7F89440915605C5
:1026D0005091570560915805709159052FBFC090D2
:1026E0005105D0905205E0905305F09054054C19D7
:1026F0005D096E097F09493251056105710570F068
:1027000020910201121751F010930201892B31F42C
:10271000809150058823B1F00E94C00510930301F9
:102720000E94850880E090E0892B09F4B7CB0E94D5
:102730004902882309F4B2CB0E940000AFCB90E09D
:1027400080E0A9CF0E94CA05E9CF8CE296E00C9404
:102750003E0691110C94B213803219F089508550C5
:10276000C8F70895992788270895F999FECF92BD53
:1027700081BDF89A992780B50895262FF999FECF43
:102780001FBA92BD81BD20BD0FB6F894FA9AF99A8E
:102790000FBE01960895052E97FB1EF400940E942B
:1027A000E21357FD07D00E94341407FC03D04EF407
:1027B0000C94E21350954095309521953F4F4F4F23
:1027C0005F4F089590958095709561957F4F8F4FDD
:1027D0009F4F08950E945614A59F900DB49F900D91
:1027E000A49F800D911D11240895B7FF0C94EA1346
:1027F0000E94EA13821B930B08952F923F924F92EF
:102800005F926F927F928F929F92AF92BF92CF9280
:10281000DF92EF92FF920F931F93CF93DF93CDB789
:10282000DEB7CA1BDB0B0FB6F894DEBF0FBECDBF01
:1028300009942A88398848885F846E847D848C84D2
:102840009B84AA84B984C884DF80EE80FD800C81DB
:102850001B81AA81B981CE0FD11D0FB6F894DEBFBE
:102860000FBECDBFED010895A1E21A2EAA1BBB1B1E
:10287000FD010DC0AA1FBB1FEE1FFF1FA217B3074C
:10288000E407F50720F0A21BB30BE40BF50B661F62
:10289000771F881F991F1A9469F760957095809526
:1028A00090959B01AC01BD01CF010895A29FB0019D
:1028B000B39FC001A39F700D811D1124911DB29F74
:1028C000700D811D1124911D0895991B79E004C09C
:1028D000991F961708F0961B881F7A95C9F780955F
:1028E0000895EE0FFF1F0590F491E02D09940F93CA
:1028F0001F93CF93DF938230910510F482E090E034
:10290000E0914306F091440630E020E0B0E0A0E022
:10291000309799F42115310509F44AC0281B390B69
:1029200024303105D8F58A819B816115710589F1C3
:10293000FB0193838283FE0111C04081518102819A
:10294000138148175907E0F04817590799F4109771
:1029500061F012960C93129713961C933296CF0146
:10296000DF91CF911F910F9108950093430610932B
:102970004406F4CF2115310551F04217530738F0C2
:10298000A901DB019A01BD01DF01F801C1CFEF010F
:10299000F9CF9093440680934306CDCFFE01E20F1A
:1029A000F31F819391932250310939832883D7CF24
:1029B0002091410630914206232B41F420910601DB
:1029C0003091070130934206209341062091040183
:1029D000309105012115310541F42DB73EB74091E5
:1029E000080150910901241B350BE0914106F0913B
:1029F0004206E217F307A0F42E1B3F0B28173907F6
:102A000078F0AC014E5F5F4F2417350748F04E0F4A
:102A10005F1F5093420640934106819391939FCF4D
:102A2000F0E0E0E09CCFCF93DF930097E9F0FC016A
:102A3000329713821282A0914306B0914406ED01B1
:102A400030E020E01097A1F420813181820F931FA4
:102A500020914106309142062817390709F061C0DC
:102A6000F0934206E0934106DF91CF910895EA0189
:102A7000CE17DF07E8F54A815B819E0141155105BC
:102A8000B1F7E901FB83EA8349915991C40FD51F3E
:102A9000EC17FD0761F4808191810296840F951FE8
:102AA000E90199838883828193819B838A83F0E003
:102AB000E0E012968D919C9113970097B9F52D91B6
:102AC0003C911197CD010296820F931F20914106F0
:102AD000309142062817390739F6309751F5109290
:102AE000440610924306B0934206A0934106BCCF21
:102AF000D383C28340815181840F951FC817D907A2
:102B000061F44E5F5F4F88819981480F591F51834F
:102B100040838A819B81938382832115310509F04B
:102B2000B0CFF0934406E09343069ECFFD01DC0155
:102B3000C0CF13821282D7CFB0E0A0E0E2EAF5E185
:102B40000C94FF138C01009751F4CB010E94771471
:102B50008C01C801CDB7DEB7E0E10C941B14FC0179
:102B6000E60FF71F9C0122503109E217F30708F422
:102B70009DC0D901CD91DC911197C617D70798F068
:102B8000C530D10530F3CE0104978617970708F3B7
:102B9000C61BD70B2297C193D1936D937C93CF0122
:102BA0000E941315D6CF5B01AC1ABD0A4C018C0EE6
:102BB0009D1EA0914306B0914406512C412CF12C4E
:102BC000E12C109731F580914106909142068815CD
:102BD000990509F05CC04616570608F058C0809168
:102BE000040190910501009741F48DB79EB7409183
:102BF000080150910901841B950BE817F90708F0AB
:102C000055C0F0934206E0934106F9017183608359
:102C1000A0CF8D919C91119712966C90129713965C
:102C20007C901397A815B90559F56C0142E0C40EC4
:102C3000D11CCA14DB0420F1AC014A195B09DA018A
:102C40001296159780F06282738251834083D90176
:102C50006D937C93E114F10471F0D7011396FC930A
:102C6000EE93129776CF22968C0F9D1FF9019183D8
:102C70008083F301EFCFF0934406E093430669CFDE
:102C80004816590608F42C017D01D3019ACFCB01D7
:102C90000E9477147C01009749F0AE01B8010E94B0
:102CA0006116C8010E941315870153CF10E000E0A0
:102CB00050CF9111089581568A5108F48052855859
:102CC0000895FB01DC0102C001900D92415050407B
:102CD000D8F70895FC018191861721F08823D9F750
:102CE000992708953197CF010895FB01DC018D915B
:102CF000019080190110D9F3990B0895FB01DC01B3
:102D000001900D920020E1F70895FB01DC01415094
:102D1000504030F08D910190801919F40020B9F7DE
:102D2000881B990B0895FB01DC014150504048F08D
:102D300001900D920020C9F701C01D9241505040F2
:102D4000E0F70895FB0151915523A9F0BF01DC0183
:102D50004D9145174111E1F759F4CD010190002043
:102D600049F04D9140154111C9F3FB014111EFCFDD
:102D700081E090E00197089510E0C2E6D0E004C041
:102D8000FE010E9471142196C336D107C9F7F89449
:022D9000FFCF73
:102D9200FFFF010100004506800000004000140012
:102DA20054000000240048006C0090000000000065
:102DB2007F02DF010C02CC023D021B022F02000047
:102DC2000000A9037C03BF0452037503620353038B
:102DD200000000006705DF01BF04DE016D6F646F54
:102DE2005F666965737461006D6F646F5F72656CB5
:102DF200616A61646F006D6F646F5F6E6F636865B7
:102E0200006170616761725F746F646F00656E6309
:102E1200656E6465725F746F646F00646573636F7F
:102E22006E6F6369646F000D0A00444F4F525F4337
:102E32004C4F53454400444F4F525F4F50454E0054
:102E42004573706572616E646F2E2E2E0053697326
:102E520074656D61206C6973746F00524541445909
:102E6200004572726F72206172636869766F0055F5
:102E7200504C4F41445F4552524F523A0056656E94
:102E820074696C61646F72204F4E0056656E74698E
:102E92006C61646F72204F4646004D6F646F207301
:102EA200696E20636F6E666967004D4F44455F45EA
:102EB20052524F52004D4F44455F4F4B3A004D6FB7
:102EC200646F3A204649455354412E004D6F646F5A
:102ED2003A2052454C414A41444F2E004D6F646F97
:102EE2003A204E4F4348452E004D6F646F3A2054AE
:102EF2004F444F204F4E2E004D6F646F3A20544F77
:102F0200444F204F46462E004D6F646F206163741C
:102F120069766F002F2F00636F6E665F696E6900BE
:102F2200526563696269656E646F2E2E2E0043617D
:102F3200726761202E6F72670055504C4F41445F9B
:102F4200535441525400636F6E663A66696E006D67
:102F52006F646F20696E636F6D706C65746F006172
:102F620072636869766F20766163696F0055504CB1
:102F72004F41445F4F4B0067756172646164610049
:102F8200436F6E66696775726163696F6E006D6F1C
:102F9200646F206E6F20646566696E69646F004DB0
:102FA200656E73616A6520656E204C43443A002267
:102FB2000056656E74696C61646F723A0076656E74
:102FC20074696C61646F7220696E76616C69646F9A
:102FD200004C454427533A004C4544533A004C4573
:102FE20044733A00414C5445524E414E444F53456E
:102FF20000414C5445524E414E444F006C6564733F
:1030020020696E76616C69646F73006C696E6561CC
:1030120020696E76616C6964610065737461646FC6
:10302200005354415455533A0061627269725F70A1
:103032007565727461006365727261725F70756545
:10304200727461004E6F2076616C69646F00436F29
:103052006D616E646F00434D445F4552524F5200A2
:00000001FF
