:020000040000FA
:100000000C9463000C948B000C948B000C948B006C
:100010000C948B000C948B000C948B000C948B0034
:100020000C948B000C948B000C948B000C940C0B98
:100030000C948B000C948B000C948B000C948B0014
:100040000C946A0A0C948B000C94DA0A0C94B40A8F
:100050000C948B000C948B000C948B000C948B00F4
:100060000C94C80B0C948B000000000023002600A9
:10007000290000000000240027002A0000000000E2
:10008000250028002B0004040404040404040202D4
:100090000202020203030303030301020408102007
:1000A0004080010204081020010204081020000012
:1000B0000008000201000003040700000000000027
:1000C0000000E70C8D1311241FBECFEFD8E0DEBF78
:1000D000CDBF13E0A0E0B1E0E2E6FDE202C0059092
:1000E0000D92A63CB107D9F726E0A6ECB3E001C01B
:1000F0001D92AB33B207E1F710E0C2E6D0E004C0D6
:100100002197FE010E945914C136D107C9F70E94F8
:10011000700D0C94A4160C9400008F929F92AF92D5
:10012000BF92FF920F931F93CF93DF93F090280617
:100130002BE02F1508F44CC020912A0608E512E0A8
:10014000021B110927FD1395000F111F000F111F2E
:1001500020912906C8E8D0E0C21BD10927FDD3951C
:10016000CC0FDD1FCC0FDD1F4E010D2E000CAA0899
:10017000BB089801012E000C440B550B28193909B6
:100180004A095B09DC010E94DD1324EB30E040E00A
:1001900050E00E94B313820E931EA41EB51E8C164F
:1001A0009D062CF0E801801691060CF4E4012297DC
:1001B000CC0FDD1F2FB7F8948F2D90E0FC01EE0FD0
:1001C000FF1FE80FF91FE350FA4FD283C1832FBFFF
:1001D000DF91CF911F910F91FF90BF90AF909F90B3
:1001E0008F900895833081F028F4813099F0823027
:1001F000A9F008958730A9F08830C9F08430B1F4AF
:10020000809180008F7D03C0809180008F778093E4
:100210008000089584B58F7784BD089584B58F7D5F
:10022000FBCF8091B0008F778093B00008958091CC
:10023000B0008F7DF9CF1F93CF93DF93282F30E04D
:10024000F901E255FF4F8491F901E656FF4FD49131
:10025000F901EA57FF4FC491CC23A9F0162F811161
:100260000E94F200EC2FF0E0EE0FFF1FE458FF4F6A
:10027000A591B4918FB7F894EC91111108C0D09565
:10028000DE23DC938FBFDF91CF911F910895DE2B8A
:10029000F8CFCF93DF9390E0FC01E656FF4F249117
:1002A0008A579F4FFC0184918823C9F090E0880F02
:1002B000991FFC01EE58FF4FA591B491FC01E45841
:1002C000FF4FC591D49161110DC09FB7F8948C91E7
:1002D000209582238C938881282328839FBFDF91D8
:1002E000CF910895623051F49FB7F8943C91822FDA
:1002F000809583238C93E8812E2BEFCF8FB7F894D2
:10030000EC912E2B2C938FBFEACF3FB7F8948091BE
:10031000500590915105A0915205B091530526B515
:10032000A89B05C02F3F19F00196A11DB11D3FBF2D
:10033000BA2FA92F982F8827BC01CD01620F711DFC
:10034000811D911D42E0660F771F881F991F4A95F6
:10035000D1F708958F929F92AF92BF92CF92DF9282
:10036000EF92FF924B015C010E9485016B017C01C1
:100370000E9485016C197D098E099F09683E7340B2
:1003800081059105A8F321E0821A9108A108B1081E
:1003900088EEC80E83E0D81EE11CF11C8114910484
:1003A000A104B10429F7FF90EF90DF90CF90BF90A8
:1003B000AF909F908F900895089508950895AF92FB
:1003C000BF92CF92DF92EF92FF920F931F93CF9342
:1003D000DF936C017B018B01040F151FEB015E01A4
:1003E000AE18BF08C017D10759F06991D601ED9139
:1003F000FC910190F081E02DC6010995892B79F7D8
:10040000C501DF91CF911F910F91FF90EF90DF9089
:10041000CF90BF90AF900895FC01538D448D252F50
:1004200030E0842F90E0821B930B541710F0CF968E
:10043000089501970895FC01918D828D981761F0C0
:10044000A28DAE0FBF2FB11D5D968C91928D9F5FD7
:100450009F73928F90E008958FEF9FEF0895FC01B6
:10046000918D828D981731F0828DE80FF11D858D69
:1004700090E008958FEF9FEF0895FC01918D228DFC
:10048000892F90E0805C9F4F821B91098F73992781
:10049000089584E595E00E943D0221E0892B09F44E
:1004A00020E0822F089580E090E0892B29F00E94BF
:1004B000490281110C9400000895FC01A48DA80F3D
:1004C000B92FB11DA35ABF4F2C91848D90E0019696
:1004D0008F739927848FA689B7892C93A089B189B6
:1004E0008C91837080648C93938D848D981306C057
:1004F0000288F389E02D80818F7D80830895EF92BB
:10050000FF920F931F93CF93DF93EC0181E0888FCD
:100510009B8D8C8D98131AC0E889F989808185FF9D
:1005200015C09FB7F894EE89FF896083E889F9893F
:1005300080818370806480839FBF81E090E0DF9141
:10054000CF911F910F91FF90EF900895F62E0B8D94
:1005500010E00F5F1F4F0F731127E02E8C8D8E114F
:100560000CC00FB607FCFACFE889F989808185FFB6
:10057000F5CFCE010E945D02F1CFEB8DEC0FFD2F88
:10058000F11DE35AFF4FF0829FB7F8940B8FEA8971
:10059000FB8980818062CFCFCF93DF93EC01888D80
:1005A0008823B9F0AA89BB89E889F9898C9185FDEE
:1005B00003C0808186FD0DC00FB607FCF7CF8C917C
:1005C00085FFF2CF808185FFEDCFCE010E945D02D5
:1005D000E9CFDF91CF91089520913304260F33277F
:1005E000331F21323105ECF420915704FC0190E0D7
:1005F00080E0243069F082E00895A09133042191D5
:10060000AC014D5E5B4FA40FB52FB11D2C9301962D
:10061000861798F380913304680F6093330480E069
:10062000089581E008951092570481E08093590461
:100630001092580461E082E10E941B0161E083E1B5
:100640000E941B01E9EBF0E080818E7F8083808136
:100650008D7F808388E48093B80085E48093BC001C
:100660000895CF93DF9391E0909312048823B9F01B
:10067000C091B800D091BA008091BC008A7B809371
:10068000BC0060E082E10E941B0160E083E10E9407
:100690001B010E941303D093BA00C093B800DF91EE
:1006A000CF9108950895E091850480918404E8171E
:1006B00030F4F0E0E351FC4F808190E008958FEF3B
:1006C0009FEF089590918504809184042FEF3FEF70
:1006D000981748F4E92FF0E0E351FC4F208130E017
:1006E0009F5F90938504C90108958091840490913F
:1006F0008504891B990B0895CF92DF92EF92FF92A8
:100700000F931F93CF93DF937C01CB018A0120913C
:10071000EC03222389F0EB016B01C40ED51ECC152E
:10072000DD0569F06991D701ED91FC910190F081AF
:10073000E02DC7010995F3CF642F0E94EC02C80198
:10074000DF91CF911F910F91FF90EF90DF90CF90AD
:100750000895CF93DF931F92CDB7DEB769832091C1
:10076000EC032223F9F020918204203258F021E09A
:1007700030E0FC013383228390E080E00F90DF9132
:10078000CF91089580918304E82FF0E0E453FC4F6B
:10079000998190838F5F809383048093820481E0AA
:1007A00090E0ECCF61E0CE0101960E94EC02F7CF21
:1007B000CF92DF92EF92FF920F931F93CF93DF932D
:1007C000FC01C48121E02093EC03C093CB03109281
:1007D0008304109282048385682B81EF95E00E9448
:1007E000A903D0918204D13208F092C00E94850101
:1007F0006B017C0180915704811165C082E0809378
:10080000570481E0809359048FEF8093560410922F
:100810007B04D0937A04ACECB3E0EAE5F4E080E04A
:10082000D81385C010927C0480917C04CC0FC82B17
:10083000C0937C0480915804813009F07CC01092F0
:1008400058040E9485016B017C0180917C04809397
:10085000BB0080910E0490910F04A0911004B09100
:100860001104892B8A2B8B2B99F00E948501009112
:100870000E0410910F0420911004309111046C1992
:100880007D098E099F090617170728073907E0F128
:100890008091BC0083FDD9CF85EC8093BC000E9481
:1008A00085016B017C0180915704823009F445C0B9
:1008B000809156048F3F61F180915604803241F15E
:1008C0008091560425C080910E0490910F04A09150
:1008D0001004B0911104892B8A2B8B2B09F48ACF39
:1008E0000E94850100910E0410910F0420911004C4
:1008F000309111046C197D098E099F09061717079D
:100900002807390708F076CF80910D040E94310343
:1009100010928304109282041092EC03DF91CF9125
:100920001F910F91FF90EF90DF90CF9008959D91D0
:1009300091938F5F75CF85EEB0CF80910E0490912B
:100940000F04A0911004B0911104892B8A2B8B2BDA
:1009500009F4A9CF0E94850100910E0410910F04A3
:1009600020911004309111046C197D098E099F09A2
:10097000061717072807390708F095CFC5CF90E06D
:1009800080E00895882359F0813061F0823069F069
:10099000833071F0843079F081E891E0089582E449
:1009A00091E008958EE491E008958CE591E008953A
:1009B00083E791E0089587E691E00895CF93C82FEB
:1009C000682F85E00E941B016C2F86E00E941B01AE
:1009D0006C2F87E00E941B016C2F88E00E941B0196
:1009E0006C2F8CE0CF910C941B01E0910001EF3F44
:1009F00059F086E2E89FF0011124EA57FB4F81810C
:100A0000882319F08281089581E008950F931F9340
:100A1000CF938C01C62F0E94D8036C2F6460C8014D
:100A20000E94D8036C2F6B7FC8010E94D80383EC0F
:100A300090E00197F1F7CF911F910F9108950F93D7
:100A40001F93CF93DF938C01D62FC42F607F642B2D
:100A50000E94060580E1D89FB00111246C2BC801CB
:100A6000DF91CF911F910F910C940605CF93DF93E7
:100A7000CDB7DEB728970FB6F894DEBF0FBECDBF57
:100A800098E0EAE0F1E0DE01119601900D929A956E
:100A9000E1F790913306981708F48FEF90E0880FF4
:100AA000991F21E030E02C0F3D1F820F931FFC01A6
:100AB0006081606840E08BE296E028960FB6F8947B
:100AC000DEBF0FBECDBFDF91CF910C941F0541E07B
:100AD0000E941F0581E090E00895FB01DC018D91EB
:100AE0009C91009761F0608171816115710539F009
:100AF000448155810E946D1621E0892B09F020E088
:100B0000822F0895CF93DF93FC0124813581232B1D
:100B100071F0C081D1816AE370E0CE010E9452166B
:100B2000009729F08C1B9D0BDF91CF9108958FEFDB
:100B30009FEFFACFFB0101900020E9F73197AF0159
:100B4000461B570BDC01ED91FC910280F381E02DF7
:100B50000994CF93DF93D0E0C0E0009731F0BC015F
:100B600084E595E00E949A05EC016DE871E084E56A
:100B700095E00E949A058C0F9D1FDF91CF910895FB
:100B80001092460590E080E00E948D0080E991E09F
:100B90000C94A90581E0809346058AE590E00E94C7
:100BA0008D008CE991E00C94A9056115710511F097
:100BB0000C949A0590E080E008950F931F93CF93D3
:100BC000DF938C01EB0140E061E08BE296E00E9454
:100BD0001F058BE39FE10197F1F780E00E94360546
:100BE000B8018BE296E00E94D50581E00E943605AF
:100BF000BE018BE296E0DF91CF911F910F910C9493
:100C0000D50561E082E00E941B0160E084E00E9463
:100C10001B0160E083E00E941B0166EA71E083EB48
:100C200091E00E94DD0581EC91E00C94A905CF9341
:100C3000DF93EC01109245058FEF8093000181E076
:100C40008093440560E082E00E941B0160E083E045
:100C50000E941B0161E084E00E941B01BE0187EC41
:100C600091E00E94DD0565ED71E084E595E00E946C
:100C7000D505CE01DF91CF910C94A905FC018081AF
:100C80009181009711F00C94FB140895FC012481CC
:100C90003581232B39F421E0FB018081882349F041
:100CA00020E007C0808191810E945D1621E0892BA0
:100CB000B9F7822F0895AF92BF92CF92DF92EF9251
:100CC000FF920F931F93CF93DF93DC01CD90DC90C5
:100CD0001197C114D10439F01496CD91DC918C0197
:100CE0007601209761F4DF91CF911F910F91FF90D2
:100CF000EF90DF90CF90BF90AF90089575015701AE
:100D0000BFEFAB1ABB0AF7018081082E000C990BCC
:100D10000E949113892B91F72197CC0DDD1D8881BD
:100D2000082E000C990B0E949113892B29F0CE15E7
:100D3000DF0510F02197F3CFAE014F5F5F4F4E19E3
:100D40005F09D80115965C934E931497CE14DF0477
:100D500020F4B701C6010E944916D801ED91FC911B
:100D6000119714968D919C91E80FF91F1082BBCFBB
:100D7000CF93DF93EC010E945B0662E471E0CE0149
:100D80000E944606811120C06EE471E0CE010E94EF
:100D9000460681111BC06CE571E0CE010E9446063B
:100DA000811116C063E771E0CE010E9446068111F1
:100DB00011C067E671E0CE010E94460681110CC0A9
:100DC0008FEFDF91CF91089580E0FBCF81E0F9CFE5
:100DD00082E0F7CF83E0F5CF84E0F3CFCF93DF93CA
:100DE000FC01C081D181209761F08991882349F06D
:100DF000082E000C990B0E944116FE01319780834A
:100E0000F4CFDF91CF9108950F931F93CF93DF938A
:100E1000EC0188819981009759F02A813B8126173E
:100E2000370730F081E0DF91CF911F910F91089546
:100E30008B016F5F7F4F0E948415009759F0998353
:100E400088831B830A832C813D81232B59F7FC0166
:100E50001082E8CF80E0E7CFEF92FF920F931F93CD
:100E6000CF93DF93EC017B018A01BA010E94040752
:100E700028813981811114C02115310519F0C9016A
:100E80000E94FB14198218821D821C821B821A8206
:100E9000CE01DF91CF911F910F91FF90EF900895B8
:100EA0001D830C83B701C9010E946616F1CFFB01B7
:100EB000DC0111961C921E9213961C921E921297A0
:100EC00015961C921E9214978617970749F0608119
:100ED00071816115710521F0448155810C942C07B5
:100EE0000895FC01118210821382128215821482ED
:100EF000FB0101900020E9F73197AF01461B570B2A
:100F00000C942C07AF92BF92CF92DF92EF92FF9298
:100F10000F931F93CF93DF93EC016B015A0179017B
:100F20002417350720F48B2D5901E42EF82E6FE895
:100F300071E0CE010E947107D60114960D911C91AB
:100F4000A016B10628F5E016F10608F48701D601CF
:100F5000ED91FC911197E00FF11FF08010826D91DF
:100F60007C916A0D7B1D61157105F1F0FB0101900B
:100F70000020E9F73197AF01461B570BCE010E94C5
:100F80002C07F60180819181080F191FD801FC926E
:100F9000CE01DF91CF911F910F91FF90EF90DF90E5
:100FA000CF90BF90AF90089588819981009711F0FC
:100FB0000E94FB14198218821D821C821B821A82D5
:100FC000E0CF0F931F93CF93DF93CDB7DEB72C976E
:100FD0000FB6F894DEBF0FBECDBF8B01BC01CE01B2
:100FE00001960E945707B801CE0107960E9471072B
:100FF000CE0101960E94EE06CE0107960E94EE06F3
:101000002D813E818B859C8510E02817390740F0A3
:10101000BE01695F7F4FCE0101960E946D05182FBA
:10102000CE0107960E943E06CE0101960E943E0622
:1010300081E0111101C080E02C960FB6F894DEBF5C
:101040000FBECDBFDF91CF911F910F91089585ED18
:101050008093BC0080910E0490910F04A091100425
:10106000B09111040796A11DB11D23E0B695A79577
:10107000979587952A95D1F72091BC0024FD03C050
:1010800010925704089540910E0450910F046091FE
:10109000100470911104452B462B472B69F30097E0
:1010A000A105B10541F02AE22A95F1F700C00197A8
:1010B000A109B109E1CF80910D040C943103CF92C5
:1010C000DF92EF92FF920F931F93CF93DF93EB0189
:1010D0007B0124E2E20EF11C8B016C01C61AD70AD7
:1010E000C601800F911F0E949D13F80181938F010B
:1010F000EE15FF05A9F7CE01DF91CF911F910F915A
:10110000FF90EF90DF90CF9008950F931F93CF93B0
:10111000DF93CDB7DEB7A4970FB6F894DEBF0FBE4E
:10112000CDBF809101018F3F09F44FC0BE016F5FB9
:101130007F4F04E2809FC00111240E945F088B81D1
:10114000823009F042C02FB7F89480914C059091FD
:101150004D05A0914E05B0914F052FBF4091C7039B
:101160005091C8036091C9037091CA038C019D011D
:10117000041B150B260B370BB901A801423C51404B
:101180006105710510F18093C7039093C803A09384
:10119000C903B093CA030091C60311E0102710934E
:1011A000C603612F85E00E941B01602F86E00E942C
:1011B0001B01612F87E00E941B01602F88E00E94C5
:1011C0001B01612F8CE00E941B01A4960FB6F894BE
:1011D000DEBF0FBECDBFDF91CF911F910F9108955C
:1011E000EF92FF920F931F93CF93DF93CDB7DEB7AC
:1011F000A4970FB6F894DEBF0FBECDBF182FBE0167
:101200006F5F7F4F24E2829FC00111240E945F081C
:101210000981812F0E94C2047C010234E9F081E03F
:101220008093440561E084E00E941B01B70180E0E7
:1012300092E00E94DD0580E192E00E94A905A4965B
:101240000FB6F894DEBF0FBECDBFDF91CF911F91D7
:101250000F91FF90EF9008951093010110924405B3
:1012600060E084E00E941B0161E082E00E941B01BB
:1012700061E08A81813009F060E08AE00E941B0110
:101280008B818130A9F40E94DE048A8163EE71E0D3
:10129000813011F061EF71E0CE0104960E94DD050E
:1012A0006BE172E084E595E00E94D505C701C5CFEA
:1012B000882349F31092C6031092C7031092C80303
:1012C0001092C9031092CA030E948508DECFEF92E4
:1012D000FF920F931F93CF93DF937C018B010E94AA
:1012E0005B06F701C481D581209759F4F80110827B
:1012F000F80110A2DF91CF911F910F91FF90EF9015
:101300000895C032D10510F0C0E2D0E0F70160814D
:101310007181AE01C8010E947B16C00FD11F1882D7
:10132000E7CF0F931F93CF93DF9300D000D000D06F
:10133000CDB7DEB78B0164E272E0882391F062E3FF
:1013400072E0813071F062E472E0823051F06FE45B
:1013500072E0833031F06EE572E0843011F06EE6B9
:1013600072E0CE0101960E947107B801CE0101968C
:101370000E946709CE0101960E943E0626960FB68E
:10138000F894DEBF0FBECDBFDF91CF911F910F91BB
:1013900008959F92AF92BF92CF92DF92EF92FF9209
:1013A0000F931F93CF93DF93CDB7DEB7AA970FB6F6
:1013B000F894DEBF0FBECDBFE82E82E489838BADEB
:1013C0008A838CAD8B83BE01635C7F4FCE01859693
:1013D0000E947107BE016C5F7F4FCE0185960E940F
:1013E0006709CE0185960E943E0684E2E89E700160
:1013F0001124FE0131966F0110E000E0F60191909A
:101400006F015701A00EB11EC5010E949D139816D1
:1014100021F0692DC5010E94A5130F5F1F4F0432F3
:10142000110561F7AA960FB6F894DEBF0FBECDBFC7
:10143000DF91CF911F910F91FF90EF90DF90CF90B0
:10144000BF90AF909F9008951F93CF93DF93CDB738
:10145000DEB7AC970FB6F894DEBF0FBECDBF182F26
:1014600081E089838A838B836C834D83B901CE01AC
:1014700087960E947107BE016A5F7F4FCE018796F3
:101480000E946709CE0187960E943E068DB79EB7DF
:1014900086970FB6F8949EBF0FBE8DBFADB7BEB78F
:1014A000119686E2FE01319601900D928A95E1F740
:1014B000812F0E94C9090FB6F894DEBF0FBECDBFC1
:1014C000AC960FB6F894DEBF0FBECDBFDF91CF91C3
:1014D0001F9108951F920F920FB60F9211242F9310
:1014E0003F938F939F93AF93BF9380914C059091BF
:1014F0004D05A0914E05B0914F0530914B0523E06D
:10150000230F2D3758F50196A11DB11D20934B05D2
:1015100080934C0590934D05A0934E05B0934F05D5
:101520008091500590915105A0915205B0915305BD
:101530000196A11DB11D8093500590935105A09374
:101540005205B0935305BF91AF919F918F913F91F9
:101550002F910F900FBE0F901F90189526E8230F24
:101560000296A11DB11DD2CF1F920F920FB60F92FE
:1015700011242F933F934F935F936F937F938F9398
:101580009F93AF93BF93EF93FF9384E595E00E9401
:101590005D02FF91EF91BF91AF919F918F917F91EC
:1015A0006F915F914F913F912F910F900FBE0F90D0
:1015B0001F9018951F920F920FB60F9211242F9320
:1015C0008F939F93EF93FF93E0916405F0916505EE
:1015D0008081E0916A05F0916B0582FD1BC09081CE
:1015E00080916D058F5F8F7320916E05821741F09A
:1015F000E0916D05F0E0EC5AFA4F958F80936D0500
:10160000FF91EF919F918F912F910F900FBE0F90AF
:101610001F9018958081F4CF1F920F920FB60F92F2
:1016200011242F933F934F935F936F937F938F93E7
:101630009F93AF93BF93CF93DF93EF93FF938091EB
:101640007D04C0912106D0E087FF24C01092850060
:101650001092840080917D048F5F80937D0480913F
:101660007D04082E000C990B8C179D0724F48091A3
:101670007D048C30C4F180918400909185000496A3
:1016800080349C4908F47AC0809184009091850050
:10169000049676C080917D04082E000C990B8C175F
:1016A0009D07C4F6E0917D048E2FEE0F990BFC018F
:1016B000EE0FFF1FE80FF91FE350FA4F808186FFFE
:1016C000C9CFE0917D048E2FEE0F990BFC01EE0F38
:1016D000FF1FE80FF91FE350FA4F808160E08F731E
:1016E0000E941B01B7CF2091840030918500E091CA
:1016F0007D048E2FEE0F990BFC01EE0FFF1FE80FFC
:10170000F91FE350FA4F81819281820F931F9093CA
:10171000890080938800E0917D048E2FEE0F990B55
:10172000FC01EE0FFF1FE80FF91FE350FA4F808115
:1017300086FF11C0E0917D048E2FEE0F990BFC0106
:10174000EE0FFF1FE80FF91FE350FA4F808161E0B1
:101750008F730E941B01FF91EF91DF91CF91BF9199
:10176000AF919F918F917F916F915F914F913F9139
:101770002F910F900FBE0F901F90189580E49CE959
:1017800090938900809388008FEF80937D04E3CF4E
:101790001F920F920FB60F9211242F933F934F93E6
:1017A0005F936F937F938F939F93AF93BF93EF93C9
:1017B000FF938091B900887F803609F44AC0F0F524
:1017C000883209F4A7C018F5803109F49BC0B8F439
:1017D000882309F4F9C0883009F494C0FF91EF918F
:1017E000BF91AF919F918F917F916F915F914F9139
:1017F0003F912F910F900FBE0F901F901895883139
:1018000009F488C0803251F78093560414C08034A4
:1018100009F49DC040F48033B9F38833F9F680931E
:10182000560485ECB0C0803509F485C0883509F4CC
:1018300096C0883499F60E942708D0CF883909F4D9
:101840008CC038F5883729F050F4883611F080378D
:1018500029F683E0809357041092550457C08838C6
:1018600009F47BC0803919F0803809F0B7CF809136
:101870005504803208F071C0E091550481E08E0F6C
:10188000809355048091BB00F0E0EB5CFB4F8083BC
:101890003DC0803B39F0E0F4803A09F479C0883AE1
:1018A00009F09CCF84E08093570410923404109286
:1018B0003304E0918004F091810409958091330410
:1018C00081110FC081E0809333041092130409C08A
:1018D000803C09F4A6CF883C09F4A3CF883B09F0EB
:1018E0007DCFE091340481E08E0F80933404F0E0EA
:1018F000ED5EFB4F80818093BB009091340480911A
:10190000330429C080917C048093BB0085EC8093D4
:10191000BC0064CF90917B0480917A04981758F5AD
:10192000E0917B0481E08E0F80937B04F0E0E65A27
:10193000FB4F8081E9CFE0917B0481E08E0F8093A3
:101940007B048091BB00F0E0E65AFB4F80839091CE
:101950007B0480917A049817C8F285E8D8CFE0918B
:101960007B0481E08E0F80937B048091BB00F0E0CC
:10197000E65AFB4F80838091590481115CCF81E04E
:101980008093580484EA8093BC001092570426CFB9
:1019900085EC8093BC0010925704809155048032EE
:1019A00030F4E0915504F0E0EB5CFB4F1082609165
:1019B000550470E0E0917E04F0917F0485E394E0AB
:1019C0000995109255040ACF1092560434CF109204
:1019D00057051092560588EE93E0A0E0B0E08093A2
:1019E000580590935905A0935A05B0935B0526E1DD
:1019F00031E0309355052093540525EC30E03093C9
:101A000061052093600524EC30E03093630520935A
:101A1000620520EC30E0309365052093640521ECED
:101A200030E0309367052093660522EC30E0309378
:101A300069052093680526EC30E030936B05209310
:101A40006A0510926D0510926E0510926F05109246
:101A500070051092F4051092F3058093F5059093AC
:101A6000F605A093F705B093F80588E291E090930E
:101A7000F2058093F10510922E0610922D068AE34E
:101A800091E090932C0680932B0687E280932F069B
:101A900080E18093340682E080933506109236060A
:101AA000809121068C30C0F491E0980F909321062C
:101AB0008093280690E0FC01EE0FFF1FE80FF91F4E
:101AC000E350FA4F88EB9BE0928381836FE871E0EB
:101AD00082E296E00C9471078FEF80932806F6CF90
:101AE000CF93DF93CDB7DEB7CE54D1090FB6F894BC
:101AF000DEBF0FBECDBF789484B5826084BD84B54F
:101B0000816084BD85B5826085BD85B5816085BDF8
:101B100080916E00816080936E00109281008091B0
:101B20008100826080938100809181008160809338
:101B30008100809180008160809380008091B1005D
:101B400084608093B1008091B00081608093B00088
:101B500080917A00846080937A0080917A0082601C
:101B600080937A0080917A00816080937A008091DE
:101B70007A00806880937A001092C10060E080E073
:101B80000E94490161E081E00E94490161E082E038
:101B90000E94490161E083E00E94490161E084E024
:101BA0000E94490161E085E00E94490161E086E010
:101BB0000E94490161E087E00E94490161E088E0FC
:101BC0000E94490161E08AE00E94490162E08BE0E5
:101BD0000E94490161E08CE00E944901E0916405A6
:101BE000F091650582E08083E0916005F0916105E8
:101BF0001082E0916205F09163058FEC8083109272
:101C00006C05E0916805F091690586E08083E091BC
:101C10006605F0916705808180618083E0916605AB
:101C2000F0916705808188608083E0916605F0917E
:101C30006705808180688083E0916605F091670583
:101C400080818F7D8083809128068C3008F051C080
:101C500061E089E00E94490180912806282F30E048
:101C6000F901EE0FFF1FE20FF31FE350FA4F9081CF
:101C7000907C996090831092290610922A062CE09D
:101C8000622F0E944D14829FB001112430E020E0A9
:101C9000AB01420F531FFA01EE0FFF1FE40FF51FB8
:101CA000E350FA4F908196FD16C02F5F3F4F2C30C6
:101CB000310571F781110FC01092800082E080938E
:101CC00081001092850010928400B19A80916F007B
:101CD000826080936F00E09128068E2F90E0FC01D7
:101CE000EE0FFF1FE80FF91FE350FA4F8081806469
:101CF00080830E94C0051092850410928404109283
:101D00008304109282040E9413038CED91E090935F
:101D10008104809380048DED91E090937F04809303
:101D20007E041092300680913506823018F098E0DB
:101D3000909330068093330662E370E080E090E099
:101D40000E94AA01609136068BE296E00E94D803B9
:101D500068EE73E080E090E00E94AA0160E38BE20D
:101D600096E00E9406050BE416E4C8010197F1F71E
:101D700060E38BE296E00E940605C8010197F1F747
:101D800060E38BE296E00E94060583E592E001970E
:101D9000F1F760E28BE296E00E9406056091300662
:101DA000606240E08BE296E00E941F0584E0809331
:101DB000310640E06CE08BE296E00E941F0540E0B7
:101DC00061E08BE296E00E941F050BE31FE1C80172
:101DD0000197F1F782E08093320640E066E08BE203
:101DE00096E00E941F0540E062E08BE296E00E94D0
:101DF0001F05C8010197F1F788E08093360660E07F
:101E00008BE296E00E94D8030E940106BE016F5F3C
:101E10007F4F80E990E00E945F088981823419F148
:101E200024E232E042E061E080E00E94240A22E302
:101E300032E041E060E081E00E94240A22E432E0E6
:101E400040E060E082E00E94240A2FE432E041E0BA
:101E500061E083E00E94240A2EE532E040E060E089
:101E600084E00E94240A84E00E94F008DD24D394D8
:101E700016E284E595E00E943D02181619060CF062
:101E8000D3C384E595E00E941B028D3091F38A3024
:101E900009F0A5C362E276E0CE01875B9F4F0E9406
:101EA0005707BE01675B7F4FCE018B960E94570795
:101EB0006AE772E0CE0185960E9471078FA598A906
:101EC000892B09F47BC0EBA4FCA46DA17EA1C70102
:101ED0000E948A16009709F471C09C012E193F09CF
:101EE0007901CE0185960E943E06F7FC6BC09701F2
:101EF00050E040E0BE01655D7F4FCE018D5B9F4F9E
:101F00000E948207CE018B960E943E06CE018D5B19
:101F10009F4F0E945B0629968EAD9FAD2997892B16
:101F2000D1F16DE772E0CE018D5B9F4F0E944606B6
:101F3000882309F460C0D0924505109244058FEFC4
:101F40008093000126E8E22E24E0F22E00E0F70163
:101F500010821182128213821482B7016B5F7F4F4D
:101F6000802F0E9491090F5FF6E2EF0EF11C053001
:101F700071F760E084E00E941B0160E082E00E9453
:101F80001B0166E872E084E992E00E94DD058FE9BA
:101F900092E00E94A905CE018D5B9F4F0E943E06F4
:101FA000CE01875B9F4F0E943E0650E040E06FE805
:101FB00071E082E296E00E942C075BCFEE24EA9467
:101FC000FE2C8FCF8BA59CA525969FAF8EAF259716
:101FD0008DA59EA527969FAF8EAF27978FA598A911
:101FE00029969FAF8EAF29971CA61BA61EA61DA6DD
:101FF00018AA1FA687CF80914505BE016D5B7F4F54
:10200000882309F482C2CE01CD960E9457076CEA5C
:1020100072E0CE01CD960E944606882309F475C071
:102020000E94F504811105C085EB92E00E9417061D
:1020300067C096E8A92E94E0B92EF12CE12C80E03F
:10204000F5010081002309F11E9DF0011F9DF00D97
:102050001124EA57FB4F2DB73EB7265231090FB670
:10206000F8943EBF0FBE2DBFADB7BEB71196812FFE
:1020700001900D928A95E1F78E2D0E94C9090FB645
:10208000F894DEBF0FBECDBF802F5FEFE51AF50AD3
:1020900096E2A90EB11CE5E0EE16F10489F6811175
:1020A00003C085EC92E0C2CF109245058FEF80937C
:1020B000000183ED92E00E94A90560E084E00E94A7
:1020C0001B0103E061E083E00E941B0164EB70E010
:1020D00080E090E00E94AA0160E083E00E941B0182
:1020E00064EB70E080E090E00E94AA01015051F79B
:1020F0006DED72E086EE92E00E94DD050E94010621
:10210000CE01CD960E943E0646CFBE01635C7F4F56
:10211000CE0185960E945707CE0185960E94B8068B
:10212000082FCE0185960E943E060F3FA1F00E9427
:10213000F504882309F478CF00930001109FB001C3
:102140001124FB01EA57FB4FD08265577B4F802F4C
:102150000E949109D5CFF0900001FFEF84EF92E04B
:10216000FF1609F463CFBE01635C7F4FCE018596F5
:102170000E94570765E073E0CE0185960E94E10753
:10218000082FCE0185960E943E06BE01635C7F4FFC
:10219000CE01002309F4BEC0C7960E945707CE01A6
:1021A000C7960E9482052BAD3CADAC014F5F5F4FDF
:1021B000BE01695C7F4FCE01C1960E948207CE01AD
:1021C000C1960E945B0665E173E0CE0185960E9490
:1021D00071072DA93EA989A59AA52817390708F4E2
:1021E00084C0BE016B5D7F4FCE01C1960E946D051C
:1021F000882309F47AC065E173E0CE018B960E94D2
:102200007107EDA8FEA82FA538A9E216F306B8F0CD
:1022100089A99AA9009799F06BA57CA5611571050C
:1022200071F0A701421B530B840F951F0E945D168E
:10223000892B29F401E052E0E516F10408F400E0EE
:10224000CE018B960E943E06CE0185960E943E06E8
:10225000002349F12DA93EA92150310941E050E068
:10226000BE016F5C7F4FCE0185960E94820789A9CF
:102270009AA90097F1F16DA17EA161157105B9F1DF
:102280004BA95CA929A53AA54217530780F10E94E2
:10229000661689A59AA59EAB8DAB1AA619A6CE0186
:1022A00085960E943E06E0900001E19E7001112497
:1022B000C70185579B4F7C01BE016F5C7F4FCE01EC
:1022C00085960E945707B701CE0185960E9467093F
:1022D000CE0185960E943E06CE01C1960E943E0622
:1022E000CE01C7960E943E060BCF00E0ADCF0E9404
:1022F000FB148DA19EA19AAB89AB8FA198A59CAB35
:102300008BAB89A59AA59EAB8DAB1EA21DA218A66C
:102310001FA2C3CF85960E94570767E173E0CE01E5
:1023200085960E94E107082FCE0185960E943E0601
:10233000BE01635C7F4FCE01002309F44AC08B9637
:102340000E945707CE018B960E9482052FA538A9BF
:10235000AC014F5F5F4FBE01655D7F4FCE0185963B
:102360000E948207CE0185960E945B06CE0185966B
:102370000E94EE066EEE71E0CE0185960E94460642
:10238000882399F01F9DF0011124EA57FB4FD38257
:102390001F9DF0011124EA57FB4FD182CE01859693
:1023A0000E943E06CE018B969DCF6CEF71E0CE0170
:1023B00085960E944606882339F01F9DF00111245E
:1023C000EA57FB4F1382E4CF83E293E00E941706A3
:1023D000E5CFC1960E94570767E373E0CE01C1962F
:1023E0000E94E107082F811126C0BE01635C7F4F68
:1023F000CE018B960E9457076EE373E0CE018B9659
:102400000E94E107082F811112C0BE01635C7F4F5B
:10241000CE0185960E94570764E473E0CE0185964D
:102420000E94E107082FCE0185960E943E06CE014C
:102430008B960E943E06CE01C1960E943E0681E721
:1024400093E0002309F4F2CDBE01635C7F4FCE011F
:102450008B960E945707CE018B960E9482052FA56E
:1024600038A9AC014F5F5F4FBE01655D7F4FCE0164
:1024700085960E948207CE0185960E945B06CE015A
:1024800085960E94EE066EEE71E0CE0185960E9462
:102490004606882371F01F9DD0011124AA57BB4F17
:1024A0001496DC921F9DF0011124EA57FB4FD28253
:1024B00075CF6CEF71E0CE0185960E9446068823A9
:1024C00041F01F9DD0011124AA57BB4F14961C92B6
:1024D000E9CF6AE473E0CE0185960E944606811139
:1024E00008C067E573E0CE0185960E944606882302
:1024F00049F01F9DD0011124AA57BB4F82E01496CA
:102500008C93D0CF82E693E061CFCE018B960E9470
:102510005707BE01655D7F4FCE0185960E94570724
:10252000CE0185960E94B806082FCE0185960E949E
:102530003E060F3F31F0802F0E94F008CE018B96AF
:10254000E1CD60E873E0CE018B960E9446068823B9
:1025500009F167E873E084E595E00E94D505809174
:1025600001010E94C204BC0184E595E00E94D505EA
:1025700063E173E084E595E00E94D5058091440510
:10258000811105C08AED92E00E94A905D7CF80ECA9
:1025900093E0FACF6FE873E0CE018B960E94460677
:1025A000882319F00E94CA05C9CF6CE973E0CE01F7
:1025B0008B960E944606882319F00E94C005BECF64
:1025C000D092440561E084E00E941B016AEA73E056
:1025D00084EB93E00E94DD058CEB93E0D5CF8DA3D7
:1025E0001EA2E0902606F09027069FEFE91AF90A4E
:1025F000B70182E296E00E940407882309F439CCEF
:10260000209122063091230680912606909127067C
:10261000BE016B5D7F4F820F931F0E946616F09282
:102620002706E092260625CCE9EBF0E08491E5EA66
:10263000F0E00491E1E9F0E01491112309F467C09E
:1026400081110E94F200E12FF0E0EE0FFF1FE85928
:10265000FF4FA591B491EC91E02331E020E009F423
:1026600030E0832F922F182F117020910301121741
:1026700099F02FB7F89440914C0550914D05609119
:102680004E0570914F052FBF409347055093480565
:102690006093490570934A052FB7F89440914C0513
:1026A00050914D0560914E0570914F052FBFC09020
:1026B0004705D0904805E0904905F0904A054C192F
:1026C0005D096E097F09493251056105710570F098
:1026D00020910201121751F010930201892B31F45D
:1026E000809146058823B1F00E94C0051093030134
:1026F0000E94850880E090E0892B09F4B7CB0E9406
:102700004902882309F4B2CB0E940000AFCB90E0CD
:1027100080E0A9CF0E94CA05E9CF82E296E00C943E
:102720003E0691110C949A13803219F0895085500D
:10273000C8F70895992788270895F999FECF92BD83
:1027400081BDF89A992780B50895262FF999FECF73
:102750001FBA92BD81BD20BD0FB6F894FA9AF99ABE
:102760000FBE01960895052E97FB1EF400940E945B
:10277000CA1357FD07D00E941C1407FC03D04EF467
:102780000C94CA1350954095309521953F4F4F4F6B
:102790005F4F089590958095709561957F4F8F4F0D
:1027A0009F4F08950E943E14A59F900DB49F900DD9
:1027B000A49F800D911D11240895B7FF0C94D2138E
:1027C0000E94D213821B930B08952F923F924F9237
:1027D0005F926F927F928F929F92AF92BF92CF92B1
:1027E000DF92EF92FF920F931F93CF93DF93CDB7BA
:1027F000DEB7CA1BDB0B0FB6F894DEBF0FBECDBF32
:1028000009942A88398848885F846E847D848C8402
:102810009B84AA84B984C884DF80EE80FD800C810B
:102820001B81AA81B981CE0FD11D0FB6F894DEBFEE
:102830000FBECDBFED010895A1E21A2EAA1BBB1B4E
:10284000FD010DC0AA1FBB1FEE1FFF1FA217B3077C
:10285000E407F50720F0A21BB30BE40BF50B661F92
:10286000771F881F991F1A9469F760957095809556
:1028700090959B01AC01BD01CF010895A29FB001CD
:10288000B39FC001A39F700D811D1124911DB29FA4
:10289000700D811D1124911D0895991B79E004C0CC
:1028A000991F961708F0961B881F7A95C9F780958F
:1028B0000895EE0FFF1F0590F491E02D09940F93FA
:1028C0001F93CF93DF938230910510F482E090E064
:1028D000E0913906F0913A0630E020E0B0E0A0E067
:1028E000309799F42115310509F44AC0281B390B9A
:1028F00024303105D8F58A819B816115710589F1F4
:10290000FB0193838283FE0111C0408151810281CA
:10291000138148175907E0F04817590799F41097A1
:1029200061F012960C93129713961C933296CF0176
:10293000DF91CF911F910F91089500933906109365
:102940003A06F4CF2115310551F04217530738F0FC
:10295000A901DB019A01BD01DF01F801C1CFEF013F
:10296000F9CF90933A0680933906CDCFFE01E20F5E
:10297000F31F819391932250310939832883D7CF54
:102980002091370630913806232B41F4209106011F
:1029900030910701309338062093370620910401C7
:1029A000309105012115310541F42DB73EB7409115
:1029B000080150910901241B350BE0913706F09175
:1029C0003806E217F307A0F42E1B3F0B2817390730
:1029D00078F0AC014E5F5F4F2417350748F04E0F7B
:1029E0005F1F5093380640933706819391939FCF92
:1029F000F0E0E0E09CCFCF93DF930097E9F0FC019B
:102A0000329713821282A0913906B0913A06ED01F5
:102A100030E020E01097A1F420813181820F931FD4
:102A200020913706309138062817390709F061C020
:102A3000F0933806E0933706DF91CF910895EA01CD
:102A4000CE17DF07E8F54A815B819E0141155105EC
:102A5000B1F7E901FB83EA8349915991C40FD51F6E
:102A6000EC17FD0761F4808191810296840F951F18
:102A7000E90199838883828193819B838A83F0E033
:102A8000E0E012968D919C9113970097B9F52D91E6
:102A90003C911197CD010296820F931F209137062A
:102AA000309138062817390739F6309751F51092CA
:102AB0003A0610923906B0933806A0933706BCCF79
:102AC000D383C28340815181840F951FC817D907D2
:102AD00061F44E5F5F4F88819981480F591F518380
:102AE00040838A819B81938382832115310509F07C
:102AF000B0CFF0933A06E09339069ECFFD01DC019A
:102B0000C0CF13821282D7CFB0E0A0E0EAE8F5E1AF
:102B10000C94E7138C01009751F4CB010E945F14D1
:102B20008C01C801CDB7DEB7E0E10C940314FC01C1
:102B3000E60FF71F9C0122503109E217F30708F452
:102B40009DC0D901CD91DC911197C617D70798F098
:102B5000C530D10530F3CE0104978617970708F3E7
:102B6000C61BD70B2297C193D1936D937C93CF0152
:102B70000E94FB14D6CF5B01AC1ABD0A4C018C0E2F
:102B80009D1EA0913906B0913A06512C412CF12C92
:102B9000E12C109731F58091370690913806881511
:102BA000990509F05CC04616570608F058C0809198
:102BB000040190910501009741F48DB79EB74091B3
:102BC000080150910901841B950BE817F90708F0DB
:102BD00055C0F0933806E0933706F901718360839E
:102BE000A0CF8D919C91119712966C90129713968D
:102BF0007C901397A815B90559F56C0142E0C40EF5
:102C0000D11CCA14DB0420F1AC014A195B09DA01BA
:102C10001296159780F06282738251834083D901A6
:102C20006D937C93E114F10471F0D7011396FC933A
:102C3000EE93129776CF22968C0F9D1FF901918308
:102C40008083F301EFCFF0933A06E093390669CF22
:102C50004816590608F42C017D01D3019ACFCB0107
:102C60000E945F147C01009749F0AE01B8010E94F8
:102C70004916C8010E94FB14870153CF10E000E001
:102C800050CF9111089581568A5108F48052855889
:102C90000895FB01DC0102C001900D9241505040AB
:102CA000D8F70895FC018191861721F08823D9F780
:102CB000992708953197CF010895FB01DC018D918B
:102CC000019080190110D9F3990B0895FB01DC01E3
:102CD00001900D920020E1F70895FB01DC014150C5
:102CE000504030F08D910190801919F40020B9F70F
:102CF000881B990B0895FB01DC014150504048F0BE
:102D000001900D920020C9F701C01D924150504022
:102D1000E0F70895FB0151915523A9F0BF01DC01B3
:102D20004D9145174111E1F759F4CD010190002073
:102D300049F04D9140154111C9F3FB014111EFCF0D
:102D400081E090E00197089510E0C2E6D0E004C071
:102D5000FE010E9459142196C336D107C9F7F89491
:102D6000FFCFFFFF010100003B0680000000400094
:102D700014005400000000007F02DF010C02CC02AE
:102D80003D021B022F0200000000A9037C03BF04C8
:102D90005203750362035303000000006705DF015F
:102DA000BF04DE016D6F646F5F66696573746100F7
:102DB0006D6F646F5F72656C616A61646F006D6FE7
:102DC000646F5F6E6F636865006170616761725FF9
:102DD000746F646F00656E63656E6465725F746FB7
:102DE000646F00646573636F6E6F6369646F000D79
:102DF0000A00444F4F525F434C4F53454400444FE9
:102E00004F525F4F50454E004573706572616E645E
:102E10006F2E2E2E0053697374656D61206C69737B
:102E2000746F005245414459004572726F722061BF
:102E300072636869766F0055504C4F41445F45524C
:102E4000524F523A0056656E74696C61646F72201D
:102E50004F4E0056656E74696C61646F72204F4608
:102E600046004D6F646F2073696E20636F6E6669F4
:102E700067004D4F44455F4552524F52004D4F44FD
:102E8000455F4F4B3A004D6F646F3A2046494553BA
:102E900054412E004D6F646F3A2052454C414A41D7
:102EA000444F2E004D6F646F3A204E4F4348452EDD
:102EB000004D6F646F3A20544F444F204F4E2E0008
:102EC0004D6F646F3A20544F444F204F46462E00BA
:102ED0004D6F646F2061637469766F002F2F0063FC
:102EE0006F6E665F696E6900526563696269656EDF
:102EF000646F2E2E2E004361726761202E6F726701
:102F00000055504C4F41445F535441525400636F3D
:102F10006E663A66696E006D6F646F20696E636FEE
:102F20006D706C65746F006172636869766F20768E
:102F30006163696F0055504C4F41445F4F4B0067D0
:102F40007561726461646100436F6E666967757272
:102F50006163696F6E006D6F646F206E6F206465D2
:102F600066696E69646F004D656E73616A652065A0
:102F70006E204C43443A00220056656E74696C61C1
:102F8000646F723A0076656E74696C61646F72206A
:102F9000696E76616C69646F004C454427533A0052
:102FA0004C4544533A004C4544733A00414C544517
:102FB000524E414E444F534500414C5445524E41B0
:102FC0004E444F006C65647320696E76616C696471
:102FD0006F73006C696E656120696E76616C6964FF
:102FE000610065737461646F005354415455533AE2
:102FF0000061627269725F70756572746100636509
:10300000727261725F707565727461004E6F2076C6
:10301000616C69646F00436F6D616E646F00434D56
:08302000445F4552524F52007B
:107E0000112484B714BE81FFF0D085E080938100F7
:107E100082E08093C00088E18093C10086E0809377
:107E2000C20080E18093C4008EE0C9D0259A86E02C
:107E300020E33CEF91E0309385002093840096BBD3
:107E4000B09BFECF1D9AA8958150A9F7CC24DD24C4
:107E500088248394B5E0AB2EA1E19A2EF3E0BF2EE7
:107E6000A2D0813461F49FD0082FAFD0023811F036
:107E7000013811F484E001C083E08DD089C08234E0
:107E800011F484E103C0853419F485E0A6D080C0E4
:107E9000853579F488D0E82EFF2485D0082F10E0AE
:107EA000102F00270E291F29000F111F8ED06801E7
:107EB0006FC0863521F484E090D080E0DECF843638
:107EC00009F040C070D06FD0082F6DD080E0C81688
:107ED00080E7D80618F4F601B7BEE895C0E0D1E017
:107EE00062D089930C17E1F7F0E0CF16F0E7DF06D8
:107EF00018F0F601B7BEE89568D007B600FCFDCFD4
:107F0000A601A0E0B1E02C9130E011968C91119780
:107F100090E0982F8827822B932B1296FA010C0160
:107F200087BEE89511244E5F5F4FF1E0A038BF0790
:107F300051F7F601A7BEE89507B600FCFDCF97BE46
:107F4000E89526C08437B1F42ED02DD0F82E2BD052
:107F50003CD0F601EF2C8F010F5F1F4F84911BD097
:107F6000EA94F801C1F70894C11CD11CFA94CF0C13
:107F7000D11C0EC0853739F428D08EE10CD085E9AC
:107F80000AD08FE07ACF813511F488E018D01DD067
:107F900080E101D065CF982F8091C00085FFFCCF94
:107FA0009093C60008958091C00087FFFCCF809118
:107FB000C00084FD01C0A8958091C6000895E0E648
:107FC000F0E098E1908380830895EDDF803219F02E
:107FD00088E0F5DFFFCF84E1DECF1F93182FE3DFCA
:107FE0001150E9F7F2DF1F91089580E0E8DFEE27F6
:047FF000FF270994CA
:027FFE00040479
:00000001FF
