:100000000C9463000C948B000C948B000C948B006C
:100010000C948B000C948B000C948B000C948B0034
:100020000C948B000C948B000C948B000C94FB09AB
:100030000C948B000C948B000C948B000C948B0014
:100040000C9459090C948B000C94C9090C94A309C5
:100050000C948B000C948B000C948B000C948B00F4
:100060000C94B70A0C948B000000000023002600BB
:10007000290000000000240027002A0000000000E2
:10008000250028002B0004040404040404040202D4
:100090000202020203030303030301020408102007
:1000A0004080010204081020010204081020000012
:1000B0000008000201000003040700000000000027
:1000C0000000D60B361311241FBECFEFD8E0DEBFE1
:1000D000CDBF13E0A0E0B1E0E4EBFCE202C005908C
:1000E0000D92AA3EB107D9F726E0AAEEB3E001C00F
:1000F0001D92AF35B207E1F710E0C2E6D0E004C0D0
:100100002197FE010E940214C136D107C9F70E944F
:100110005F0C0C944D160C9400008F929F92AF923E
:10012000BF92FF920F931F93CF93DF93F0904C06F3
:100130002BE02F1508F44CC020914E0608E512E084
:10014000021B110927FD1395000F111F000F111F2E
:1001500020914D06C8E8D0E0C21BD10927FDD395F8
:10016000CC0FDD1FCC0FDD1F4E010D2E000CAA0899
:10017000BB089801012E000C440B550B28193909B6
:100180004A095B09DC010E94861324EB30E040E061
:1001900050E00E945C13820E931EA41EB51E8C16A6
:1001A0009D062CF0E801801691060CF4E4012297DC
:1001B000CC0FDD1F2FB7F8948F2D90E0FC01EE0FD0
:1001C000FF1FE80FF91FEF5DF94FD283C1832FBFE7
:1001D000DF91CF911F910F91FF90BF90AF909F90B3
:1001E0008F900895833081F028F4813099F0823027
:1001F000A9F008958730A9F08830C9F08430B1F4AF
:10020000809180008F7D03C0809180008F778093E4
:100210008000089584B58F7784BD089584B58F7D5F
:10022000FBCF8091B0008F778093B00008958091CC
:10023000B0008F7DF9CF1F93CF93DF93282F30E04D
:10024000F901E255FF4F8491F901E656FF4FD49131
:10025000F901EA57FF4FC491CC23A9F0162F811161
:100260000E94F200EC2FF0E0EE0FFF1FE458FF4F6A
:10027000A591B4918FB7F894EC91111108C0D09565
:10028000DE23DC938FBFDF91CF911F910895DE2B8A
:10029000F8CFCF93DF9390E0FC01E656FF4F249117
:1002A0008A579F4FFC0184918823C9F090E0880F02
:1002B000991FFC01EE58FF4FA591B491FC01E45841
:1002C000FF4FC591D49161110DC09FB7F8948C91E7
:1002D000209582238C938881282328839FBFDF91D8
:1002E000CF910895623051F49FB7F8943C91822FDA
:1002F000809583238C93E8812E2BEFCF8FB7F894D2
:10030000EC912E2B2C938FBFEACF3FB7F8948091BE
:10031000740590917505A0917605B091770526B585
:10032000A89B05C02F3F19F00196A11DB11D3FBF2D
:10033000BA2FA92F982F8827BC01CD01620F711DFC
:10034000811D911D42E0660F771F881F991F4A95F6
:10035000D1F708958F929F92AF92BF92CF92DF9282
:10036000EF92FF924B015C010E9485016B017C01C1
:100370000E9485016C197D098E099F09683E7340B2
:1003800081059105A8F321E0821A9108A108B1081E
:1003900088EEC80E83E0D81EE11CF11C8114910484
:1003A000A104B10429F7FF90EF90DF90CF90BF90A8
:1003B000AF909F908F900895089508950895AF92FB
:1003C000BF92CF92DF92EF92FF920F931F93CF9342
:1003D000DF936C017B018B01040F151FEB015E01A4
:1003E000AE18BF08C017D10759F06991D601ED9139
:1003F000FC910190F081E02DC6010995892B79F7D8
:10040000C501DF91CF911F910F91FF90EF90DF9089
:10041000CF90BF90AF900895FC01538D448D252F50
:1004200030E0842F90E0821B930B541710F0CF968E
:10043000089501970895FC01918D828D981761F0C0
:10044000A28DAE0FBF2FB11D5D968C91928D9F5FD7
:100450009F73928F90E008958FEF9FEF0895FC01B6
:10046000918D828D981731F0828DE80FF11D858D69
:1004700090E008958FEF9FEF0895FC01918D228DFC
:10048000892F90E0805C9F4F821B91098F73992781
:10049000089588E795E00E943D0221E0892B09F448
:1004A00020E0822F089580E090E0892B29F00E94BF
:1004B000490281110C9400000895FC01A48DA80F3D
:1004C000B92FB11DA35ABF4F2C91848D90E0019696
:1004D0008F739927848FA689B7892C93A089B189B6
:1004E0008C91837080648C93938D848D981306C057
:1004F0000288F389E02D80818F7D80830895EF92BB
:10050000FF920F931F93CF93DF93EC0181E0888FCD
:100510009B8D8C8D98131AC0E889F989808185FF9D
:1005200015C09FB7F894EE89FF896083E889F9893F
:1005300080818370806480839FBF81E090E0DF9141
:10054000CF911F910F91FF90EF900895F62E0B8D94
:1005500010E00F5F1F4F0F731127E02E8C8D8E114F
:100560000CC00FB607FCFACFE889F989808185FFB6
:10057000F5CFCE010E945D02F1CFEB8DEC0FFD2F88
:10058000F11DE35AFF4FF0829FB7F8940B8FEA8971
:10059000FB8980818062CFCFCF93DF93EC01888D80
:1005A0008823B9F0AA89BB89E889F9898C9185FDEE
:1005B00003C0808186FD0DC00FB607FCF7CF8C917C
:1005C00085FFF2CF808185FFEDCFCE010E945D02D5
:1005D000E9CFDF91CF91089520915204260F332760
:1005E000331F21323105ECF420917604FC0190E0B8
:1005F00080E0243069F082E00895A09152042191B6
:10060000AC014E5C5B4FA40FB52FB11D2C9301962E
:10061000861798F380915204680F6093520480E02B
:10062000089581E008951092760481E08093780423
:100630001092770461E082E10E941B0161E083E196
:100640000E941B01E9EBF0E080818E7F8083808136
:100650008D7F808388E48093B80085E48093BC001C
:100660000895CF93DF9391E0909331048823B9F0FC
:10067000C091B800D091BA008091BC008A7B809371
:10068000BC0060E082E10E941B0160E083E10E9407
:100690001B010E941303D093BA00C093B800DF91EE
:1006A000CF9108950895E091A4048091A304E817E0
:1006B00030F4F0E0E45FFB4F808190E008958FEF2D
:1006C0009FEF08959091A4048091A3042FEF3FEF32
:1006D000981748F4E92FF0E0E45FFB4F208130E009
:1006E0009F5F9093A404C90108958091A304909101
:1006F000A404891B990B0895CF92DF92EF92FF9289
:100700000F931F93CF93DF937C01CB018A0120913C
:100710000B04222389F0EB016B01C40ED51ECC150E
:10072000DD0569F06991D701ED91FC910190F081AF
:10073000E02DC7010995F3CF642F0E94EC02C80198
:10074000DF91CF911F910F91FF90EF90DF90CF90AD
:100750000895CF93DF931F92CDB7DEB769832091C1
:100760000B042223F9F02091A104203258F021E05B
:1007700030E0FC013383228390E080E00F90DF9132
:10078000CF9108958091A204E82FF0E0E551FC4F4D
:10079000998190838F5F8093A2048093A10481E06C
:1007A00090E0ECCF61E0CE0101960E94EC02F7CF21
:1007B000CF92DF92EF92FF920F931F93CF93DF932D
:1007C000FC01C48121E020930B04C093EA03109242
:1007D000A2041092A1048385682B85E196E00E9413
:1007E000A903D091A104D13208F092C00E948501E2
:1007F0006B017C0180917604811165C082E0809359
:10080000760481E0809378048FEF809375041092D2
:100810009A04D0939904ABEEB3E0E9E7F4E080E00A
:10082000D81385C010929B0480919B04CC0FC82BD9
:10083000C0939B0480917704813009F07CC01092B2
:1008400077040E9485016B017C0180919B04809359
:10085000BB0080912D0490912E04A0912F04B091A3
:100860003004892B8A2B8B2B99F00E9485010091F3
:100870002D0410912E0420912F04309130046C1916
:100880007D098E099F090617170728073907E0F128
:100890008091BC0083FDD9CF85EC8093BC000E9481
:1008A00085016B017C0180917604823009F445C09A
:1008B000809175048F3F61F180917504803241F120
:1008C0008091750425C080912D0490912E04A091F3
:1008D0002F04B0913004892B8A2B8B2B09F48ACFFB
:1008E0000E94850100912D0410912E0420912F0467
:1008F000309130046C197D098E099F09061717077E
:100900002807390708F076CF80912C040E94310324
:100910001092A2041092A10410920B04DF91CF91C7
:100920001F910F91FF90EF90DF90CF9008959D91D0
:1009300091938F5F75CF85EEB0CF80912D0490910C
:100940002E04A0912F04B0913004892B8A2B8B2B7D
:1009500009F4A9CF0E94850100912D0410912E0465
:1009600020912F04309130046C197D098E099F0964
:10097000061717072807390708F095CFC5CF90E06D
:1009800080E00895882359F0813061F0823069F069
:10099000833071F0843079F08BE891E008958CE435
:1009A00091E0089588E591E0089586E691E0089544
:1009B0008DE791E0089581E791E00895CF93C82FE6
:1009C000682F85E00E941B016C2F86E00E941B01AE
:1009D0006C2F87E00E941B016C2F88E00E941B0196
:1009E0006C2F8CE0CF910C941B01E0910001EF3F44
:1009F00059F086E2E89FF0011124EB55FB4F81810D
:100A0000882319F08281089581E008950F931F9340
:100A1000CF938C01C62F0E94D8036C2F6460C8014D
:100A20000E94D8036C2F6B7FC8010E94D80383EC0F
:100A300090E00197F1F7CF911F910F9108950F93D7
:100A40001F93CF93DF938C01D62FC42F607F642B2D
:100A50000E94060580E1D89FB00111246C2BC801CB
:100A6000DF91CF911F910F910C940605CF93DF93E7
:100A7000CDB7DEB728970FB6F894DEBF0FBECDBF57
:100A800098E0EAE0F1E0DE01119601900D929A956E
:100A9000E1F790915706981708F48FEF90E0880FD0
:100AA000991F21E030E02C0F3D1F820F931FFC01A6
:100AB0006081606840E08FE496E028960FB6F89475
:100AC000DEBF0FBECDBFDF91CF910C941F0541E07B
:100AD0000E941F0581E090E00895FB01DC018D91EB
:100AE0009C91009761F0608171816115710539F009
:100AF000448155810E94161621E0892B09F020E0DF
:100B0000822F0895CF93DF93FC0124813581232B1D
:100B100071F0C081D1816AE370E0CE010E94FB15C3
:100B2000009729F08C1B9D0BDF91CF9108958FEFDB
:100B30009FEFFACFFB0101900020E9F73197AF0159
:100B4000461B570BDC01ED91FC910280F381E02DF7
:100B50000994CF93DF93D0E0C0E0009731F0BC015F
:100B600088E795E00E949A05EC0167E971E088E763
:100B700095E00E949A058C0F9D1FDF91CF910895FB
:100B800010926A0590E080E00E948D008AE991E071
:100B90000C94A90581E080936A058AE590E00E94A3
:100BA0008D0086EA91E00C94A9056115710511F09C
:100BB0000C949A0590E080E008950F931F93CF93D3
:100BC000DF938C01EB0140E061E08FE496E00E944E
:100BD0001F058BE39FE10197F1F780E00E94360546
:100BE000B8018FE496E00E94D50581E00E943605A9
:100BF000BE018FE496E0DF91CF911F910F910C948D
:100C0000D50561E082E00E941B0160E084E00E9463
:100C10001B0160E083E00E941B0160EB71E08DEB43
:100C200091E00E94DD058BEC91E00C94A905CF9337
:100C3000DF93EC01109269058FEF8093000181E052
:100C40008093680560E082E00E941B0160E083E021
:100C50000E941B0161E084E00E941B01BE0181ED46
:100C600091E00E94DD056FED71E088E795E00E945C
:100C7000D505CE01DF91CF910C94A905FC018081AF
:100C80009181009711F00C94A4140895FC01248123
:100C90003581232B39F421E0FB018081882349F041
:100CA00020E007C0808191810E94061621E0892BF7
:100CB000B9F7822F0895CF92DF92EF92FF920F93B0
:100CC0001F93CF93DF93EB017B0124E2E20EF11C33
:100CD0008B016C01C61AD70AC601800F911F0E94B2
:100CE0004613F80181938F01EE15FF05A9F7CE0198
:100CF000DF91CF911F910F91FF90EF90DF90CF90F8
:100D000008950F931F93CF93DF93CDB7DEB7A497CA
:100D10000FB6F894DEBF0FBECDBFE0910101EF3FEB
:100D200009F456C08FEF9FEFE53038F4F0E0EE0F96
:100D3000FF1FEE5EFE4F80819181BE016F5F7F4F8E
:100D40000E945B068B81823009F042C02FB7F89475
:100D50008091700590917105A0917205B091730515
:100D60002FBF4091630550916405609165057091B6
:100D700066058C019D01041B150B260B370BB90171
:100D8000A801423C51406105710510F18093630553
:100D900090936405A0936505B0936605009167057F
:100DA00011E0102710936705612F85E00E941B0159
:100DB000602F86E00E941B01612F87E00E941B01CB
:100DC000602F88E00E941B01612F8CE00E941B01B4
:100DD000A4960FB6F894DEBF0FBECDBFDF91CF91C2
:100DE0001F910F910895AF92BF92CF92DF92EF9231
:100DF000FF920F931F93CF93DF93DC01CD90DC9094
:100E00001197C114D10439F01496CD91DC918C0165
:100E10007601209761F4DF91CF911F910F91FF90A0
:100E2000EF90DF90CF90BF90AF900895750157017C
:100E3000BFEFAB1ABB0AF7018081082E000C990B9B
:100E40000E943A13892B91F72197CC0DDD1D8881E3
:100E5000082E000C990B0E943A13892B29F0CE150D
:100E6000DF0510F02197F3CFAE014F5F5F4F4E19B2
:100E70005F09D80115965C934E931497CE14DF0446
:100E800020F4B701C6010E94F215D801ED91FC9142
:100E9000119714968D919C91E80FF91F1082BBCF8A
:100EA000CF93DF93EC010E94F3066CE471E0CE0176
:100EB0000E944606811120C068E571E0CE010E94C3
:100EC000460681111BC066E671E0CE010E9446060F
:100ED000811116C06DE771E0CE010E9446068111B6
:100EE00011C061E771E0CE010E94460681110CC07D
:100EF0008FEFDF91CF91089580E0FBCF81E0F9CFB4
:100F000082E0F7CF83E0F5CF84E0F3CFCF93DF9398
:100F1000FC01C081D181209761F08991882349F03B
:100F2000082E000C990B0E94EA15FE013197808370
:100F3000F4CFDF91CF9108950F931F93CF93DF9359
:100F4000EC0188819981009759F02A813B8126170D
:100F5000370730F081E0DF91CF911F910F91089515
:100F60008B016F5F7F4F0E942D15009759F0998379
:100F700088831B830A832C813D81232B59F7FC0135
:100F80001082E8CF80E0E7CFEF92FF920F931F939C
:100F9000CF93DF93EC017B018A01BA010E949C0789
:100FA00028813981811114C02115310519F0C90139
:100FB0000E94A414198218821D821C821B821A822C
:100FC000CE01DF91CF911F910F91FF90EF90089587
:100FD0001D830C83B701C9010E940F16F1CFFB01DD
:100FE000DC0111961C921E9213961C921E9212976F
:100FF00015961C921E9214978617970749F06081E8
:1010000071816115710521F0448155810C94C407EB
:101010000895FC01118210821382128215821482BB
:10102000FB0101900020E9F73197AF01461B570BF8
:101030000C94C407AF92BF92CF92DF92EF92FF92CF
:101040000F931F93CF93DF93EC016B015A0179014A
:101050002417350720F48B2D5901E42EF82E69E969
:1010600071E0CE010E940908D60114960D911C91E1
:10107000A016B10628F5E016F10608F48701D6019E
:10108000ED91FC911197E00FF11FF08010826D91AE
:101090007C916A0D7B1D61157105F1F0FB010190DA
:1010A0000020E9F73197AF01461B570BCE010E9494
:1010B000C407F60180819181080F191FD801FC92A5
:1010C000CE01DF91CF911F910F91FF90EF90DF90B4
:1010D000CF90BF90AF90089588819981009711F0CB
:1010E0000E94A414198218821D821C821B821A82FB
:1010F000E0CF0F931F93CF93DF93CDB7DEB72C973D
:101100000FB6F894DEBF0FBECDBF8B01BC01CE0180
:1011100001960E94EF07B801CE0107960E940908C8
:10112000CE0101960E948607CE0107960E9486078F
:101130002D813E818B859C8510E02817390740F072
:10114000BE01695F7F4FCE0101960E946D05182F89
:10115000CE0107960E943E06CE0101960E943E06F1
:1011600081E0111101C080E02C960FB6F894DEBF2B
:101170000FBECDBFDF91CF911F910F91089585EDE7
:101180008093BC0080912D0490912E04A0912F0497
:10119000B09130040796A11DB11D23E0B695A79527
:1011A000979587952A95D1F72091BC0024FD03C01F
:1011B00010927604089540912D0450912E04609170
:1011C0002F0470913004452B462B472B69F3009771
:1011D000A105B10541F02AE22A95F1F700C0019777
:1011E000A109B109E1CF80912C040C943103EF9255
:1011F000FF920F931F93CF93DF937C018B010E948B
:10120000F306F701C481D581209759F4F8011082C3
:10121000F80110A2DF91CF911F910F91FF90EF90F5
:101220000895C032D10510F0C0E2D0E0F70160812E
:101230007181AE01C8010E942416C00FD11F18820F
:10124000E7CF0F931F93CF93DF9300D000D000D050
:10125000CDB7DEB78B016DEE71E0882391F06BEFB7
:1012600071E0813071F06BE072E0823051F068E142
:1012700072E0833031F067E272E0843011F067E3AE
:1012800072E0CE0101960E940908B801CE010196D4
:101290000E94F708CE0101960E943E0626960FB6E0
:1012A000F894DEBF0FBECDBFDF91CF911F910F919C
:1012B00008951F920F920FB60F9211242F933F9310
:1012C0008F939F93AF93BF93809170059091710519
:1012D000A0917205B091730530916F0523E0230F43
:1012E0002D3758F50196A11DB11D20936F058093F0
:1012F000700590937105A0937205B093730580916A
:10130000740590917505A0917605B09177050196C9
:10131000A11DB11D8093740590937505A09376056A
:10132000B0937705BF91AF919F918F913F912F918E
:101330000F900FBE0F901F90189526E8230F02966E
:10134000A11DB11DD2CF1F920F920FB60F92112483
:101350002F933F934F935F936F937F938F939F93BD
:10136000AF93BF93EF93FF9388E795E00E945D02F0
:10137000FF91EF91BF91AF919F918F917F916F916D
:101380005F914F913F912F910F900FBE0F901F9043
:1013900018951F920F920FB60F9211242F938F93CF
:1013A0009F93EF93FF93E0918805F09189058081E9
:1013B000E0918E05F0918F0582FD1BC09081809198
:1013C00091058F5F8F7320919205821741F0E09114
:1013D0009105F0E0E858FA4F958F80939105FF91C1
:1013E000EF919F918F912F910F900FBE0F901F90B3
:1013F00018958081F4CF1F920F920FB60F9211248F
:101400002F933F934F935F936F937F938F939F930C
:10141000AF93BF93CF93DF93EF93FF9380919C049F
:10142000C0914506D0E087FF24C01092850010923D
:10143000840080919C048F5F80939C0480919C0425
:10144000082E000C990B8C179D0724F480919C04A6
:101450008C30C4F180918400909185000496803492
:101460009C4908F47AC0809184009091850004968C
:1014700076C080919C04082E000C990B8C179D0758
:10148000C4F6E0919C048E2FEE0F990BFC01EE0F39
:10149000FF1FE80FF91FEF5DF94F808186FFC9CF6D
:1014A000E0919C048E2FEE0F990BFC01EE0FFF1FB5
:1014B000E80FF91FEF5DF94F808160E08F730E94A4
:1014C0001B01B7CF2091840030918500E0919C04EE
:1014D0008E2FEE0F990BFC01EE0FFF1FE80FF91F87
:1014E000EF5DF94F81819281820F931F9093890064
:1014F00080938800E0919C048E2FEE0F990BFC01E5
:10150000EE0FFF1FE80FF91FEF5DF94F808186FF97
:1015100011C0E0919C048E2FEE0F990BFC01EE0F91
:10152000FF1FE80FF91FEF5DF94F808161E08F73B6
:101530000E941B01FF91EF91DF91CF91BF91AF917D
:101540009F918F917F916F915F914F913F912F91DB
:101550000F900FBE0F901F90189580E49CE9909318
:101560008900809388008FEF80939C04E3CF1F92C3
:101570000F920FB60F9211242F933F934F935F93C7
:101580006F937F938F939F93AF93BF93EF93FF934B
:101590008091B900887F803609F44AC0F0F588321E
:1015A00009F4A7C018F5803109F49BC0B8F488236A
:1015B00009F4F9C0883009F494C0FF91EF91BF910C
:1015C000AF919F918F917F916F915F914F913F91DB
:1015D0002F910F900FBE0F901F901895883109F42E
:1015E00088C0803251F78093750414C0803409F4A8
:1015F0009DC040F48033B9F38833F9F680937504C5
:1016000085ECB0C0803509F485C0883509F496C0F2
:10161000883499F60E94BF08D0CF883909F48CC06D
:1016200038F5883729F050F4883611F0803729F6DC
:1016300083E0809376041092740457C0883809F4CC
:101640007BC0803919F0803809F0B7CF80917404DD
:10165000803208F071C0E091740481E08E0F8093B5
:1016600074048091BB00F0E0EC5AFB4F80833DC0D6
:10167000803B39F0E0F4803A09F479C0883A09F007
:101680009CCF84E08093760410925304109252040D
:10169000E0919F04F091A00409958091520481117A
:1016A0000FC081E0809352041092320409C0803C44
:1016B00009F4A6CF883C09F4A3CF883B09F07DCF7D
:1016C000E091530481E08E0F80935304F0E0EE5CD0
:1016D000FB4F80818093BB00909153048091520412
:1016E00029C080919B048093BB0085EC8093BC0053
:1016F00064CF90919A0480919904981758F5E091DD
:101700009A0481E08E0F80939A04F0E0E758FB4F33
:101710008081E9CFE0919A0481E08E0F80939A0452
:101720008091BB00F0E0E758FB4F808390919A04D2
:10173000809199049817C8F285E8D8CFE0919A046F
:1017400081E08E0F80939A048091BB00F0E0E7580F
:10175000FB4F80838091780481115CCF81E080937E
:10176000770484EA8093BC001092760426CF85EC3F
:101770008093BC001092760480917404803230F41F
:10178000E0917404F0E0EC5AFB4F10826091740415
:1017900070E0E0919D04F0919E0484E594E0099549
:1017A000109274040ACF1092750434CF10927B0506
:1017B00010927A0588EE93E0A0E0B0E080937C057B
:1017C00090937D05A0937E05B0937F0520E231E0E4
:1017D000309379052093780525EC30E0309385052A
:1017E0002093840524EC30E0309387052093860510
:1017F00020EC30E0309389052093880521EC30E01F
:1018000030938B0520938A0522EC30E030938D05D0
:1018100020938C0526EC30E030938F0520938E05C5
:1018200010929105109292051092930510929405D2
:1018300010921806109217068093190690931A06B4
:10184000A0931B06B0931C0682E391E090931606CA
:1018500080931506109252061092510684E491E08E
:101860009093500680934F0687E28093530680E161
:101870008093580682E08093590610925A06809110
:1018800045068C30C0F491E0980F90934506809304
:101890004C0690E0FC01EE0FFF1FE80FF91FEF5D13
:1018A000F94F88EB9BE09283818369E971E086E4DC
:1018B00096E00C9409088FEF80934C06F6CFCF93F7
:1018C000DF93CDB7DEB7CE56D1090FB6F894DEBFA1
:1018D0000FBECDBF789484B5826084BD84B581602D
:1018E00084BD85B5826085BD85B5816085BD8091EB
:1018F0006E00816080936E00109281008091810063
:10190000826080938100809181008160809381005A
:10191000809180008160809380008091B10084601C
:101920008093B1008091B00081608093B00080917D
:101930007A00846080937A0080917A00826080933C
:101940007A0080917A00816080937A0080917A0099
:10195000806880937A001092C10060E080E00E946D
:10196000490161E081E00E94490161E082E00E945A
:10197000490161E083E00E94490161E084E00E9446
:10198000490161E085E00E94490161E086E00E9432
:10199000490161E087E00E94490161E088E00E941E
:1019A000490161E08AE00E94490162E08BE00E9407
:1019B000490161E08CE00E944901E0918805F091C5
:1019C000890582E08083E0918405F091850510828D
:1019D000E0918605F09187058FEC80831092900549
:1019E000E0918C05F0918D0586E08083E0918A0579
:1019F000F0918B05808180618083E0918A05F09170
:101A00008B05808188608083E0918A05F0918B0549
:101A1000808180688083E0918A05F0918B058081C8
:101A20008F7D808380914C068C3008F051C061E03E
:101A300089E00E94490180914C06282F30E0F9018D
:101A4000EE0FFF1FE20FF31FEF5DF94F9081907CC7
:101A50009960908310924D0610924E062CE0622FF2
:101A60000E94F613829FB001112430E020E0AB0108
:101A7000420F531FFA01EE0FFF1FE40FF51FEF5D3A
:101A8000F94F908196FD16C02F5F3F4F2C303105E6
:101A900071F781110FC01092800082E08093810065
:101AA0001092850010928400B19A80916F0082603C
:101AB00080936F00E0914C068E2F90E0FC01EE0FBA
:101AC000FF1FE80FF91FEF5DF94F8081806480836D
:101AD0000E94C0051092A4041092A3041092A204C4
:101AE0001092A1040E9413038CED91E09093A00446
:101AF00080939F048DED91E090939E0480939D04CC
:101B00001092540680915906823018F098E0909314
:101B100054068093570662E370E080E090E00E94F4
:101B2000AA0160915A068FE496E00E94D80368EEFD
:101B300073E080E090E00E94AA0160E38FE496E009
:101B40000E9406050BE416E4C8010197F1F760E373
:101B50008FE496E00E940605C8010197F1F760E363
:101B60008FE496E00E94060583E592E00197F1F785
:101B700060E28FE496E00E94060560915406606280
:101B800040E08FE496E00E941F0584E080935506B4
:101B900040E06CE08FE496E00E941F0540E061E0C9
:101BA0008FE496E00E941F050BE31FE1C801019737
:101BB000F1F782E08093560640E066E08FE496E01D
:101BC0000E941F0540E062E08FE496E00E941F053E
:101BD000C8010197F1F788E080935A0660E08FE42E
:101BE00096E00E94D8030E94010602E111E0BE01C6
:101BF0006F5F7F4FF801819191918F010E945B0689
:101C00008981823451F0F1E00C311F0781F760E6E1
:101C100072E08DE692E00E94DD0588E795E00E9483
:101C20003D02181619060CF0A8C488E795E00E943A
:101C30001B028D3091F38A3009F07BC466E476E0B4
:101C4000CE0187599F4F0E94EF07BE0167597F4F12
:101C5000CE01855B9F4F0E94EF0769E772E0CE01DE
:101C600087960E94090861968EAD9FAD6197892B7A
:101C700009F47DC02D960EAD1FAD2D976FA178A5EF
:101C8000C8010E943316009709F471C09C01201B03
:101C9000310B8901CE0187960E943E0617FD6AC06E
:101CA000980150E040E0BE01655B7F4FCE018D5949
:101CB0009F4F0E941A08CE01855B9F4F0E943E06EF
:101CC000CE018D599F4F0E94F306A9968EAD9FAD10
:101CD000A997892BC9F16CE772E0CE018D599F4F0E
:101CE0000E944606882309F46AC081E08093690552
:101CF000109268058FEF8093000105EA14E0F12C43
:101D0000F80110821182128213821482B8016B5F73
:101D10007F4F8F2D0E942109F3940A5D1F4FF5E03C
:101D2000FF12EECF60E084E00E941B0160E082E0E1
:101D30000E941B0165E872E083E992E00E94DD05E4
:101D40008EE992E00E94A905CE018D599F4F0E9415
:101D50003E06CE0187599F4F0E943E0650E040E06C
:101D600069E971E086E496E00E94C40756CF0FEF60
:101D70001FEF90CF2D968EAD9FAD2D97A5969FAF5F
:101D80008EAFA5972F968EAD9FAD2F97A7969FAF3D
:101D90008EAFA79761968EAD9FAD6197A9969FAFC5
:101DA0008EAFA9972D961FAE1EAE2D972F961FAE04
:101DB0001EAE2F9761961FAE1EAE61977CCF8091AD
:101DC0006905BE016D597F4F882309F4E4C2CE0135
:101DD000835A9F4F0E94EF076BEA72E0CE01835A4D
:101DE0009F4F0E944606882309F499C00E94F5047B
:101DF000811105C084EB92E00E9417068AC005EAB3
:101E000014E022E1622E21E0722E80E032E4332ED3
:101E1000F8015080552009F441C086E2DE01119698
:101E200001900D928A95E1F73FA28C8188A78D8160
:101E300089A7BE016A5F7F4FCE01855B9F4F0E94DD
:101E40000908BE01665D7F4FCE01855B9F4F0E94F2
:101E5000F708CE01855B9F4F0E943E06F30180800C
:101E600091809E01295D3F4F6901F12CE12CF60123
:101E700041906F015401AE0CBF1CC5010E94461376
:101E8000481621F0642DC5010E944E13FFEFEF1A92
:101E9000FF0A24E2E216F10451F7852D0A5D1F4F77
:101EA00032E0630E711C45E00336140709F0B0CF31
:101EB000811103C084EC92E09FCF109269058FEFEF
:101EC0008093000182ED92E00E94A90560E084E029
:101ED0000E941B0113E061E083E00E941B0164EBA0
:101EE00070E080E090E00E94AA0160E083E00E9440
:101EF0001B0164EB70E080E090E00E94AA011150A9
:101F000051F76CED72E085EE92E00E94DD050E94D3
:101F10000106CE01835A9F4F0E943E0615CFBE0197
:101F2000635A7F4FCE0187960E94EF07CE018796B6
:101F30000E945007182FCE0187960E943E061F3F31
:101F4000B1F00E94F504882309F454CF10930001E6
:101F500056E2159FB0011124FB01EB55FB4F81E0C8
:101F6000808366557B4F812F0E942109D2CF00913B
:101F7000000183EF92E00F3F09F43ECFBE01635AA8
:101F80007F4FCE0187960E94EF0764E073E0CE0199
:101F900087960E947908182FCE0187960E943E06E8
:101FA000BE01635A7F4FCE01112309F4E1C0895A63
:101FB0009F4F0E94EF07CE01895A9F4F0E948205D2
:101FC0006D962EAD3FAD6D97AC014F5F5F4FBE017B
:101FD000695A7F4FCE018F5A9F4F0E941A08CE0137
:101FE0008F5A9F4F0E94F30664E173E0CE018796FB
:101FF0000E94090867962EAD3FAD67978BA59CA5FB
:102000002817390708F499C0BE01695D7F4FCE01DA
:102010008F5A9F4F0E946D05882309F48EC064E19A
:1020200073E0CE01855B9F4F0E9409086796EEAC76
:10203000FFAC679761962EAD3FAD6197E216F30650
:10204000D8F063968EAD9FAD63970097A9F02D965B
:102050006EAD7FAD2D976115710571F0F701E21B33
:10206000F30B8E0F9F1F0E940616892B29F411E097
:10207000F2E0EF16F10408F410E0CE01855B9F4F0B
:102080000E943E06CE0187960E943E06112391F1E2
:1020900067962EAD3FAD67972150310941E050E082
:1020A000BE016F5A7F4FCE0187960E941A08639631
:1020B0008EAD9FAD6397009709F443C06FA178A5DB
:1020C00061157105E1F165964EAD5FAD65972BA584
:1020D0003CA54217530798F10E940F168BA59CA5AB
:1020E00067969FAF8EAF67971CA61BA6CE018796FB
:1020F0000E943E060091000126E2029F8001112409
:1021000006551B4FBE016F5A7F4FCE0187960E9426
:10211000EF07B801CE0187960E94F708CE01879697
:102120000E943E06CE018F5A9F4F0E943E06CE016E
:10213000895A9F4F0E943E06ECCE10E0A3CF0E942A
:10214000A4148FA198A563969FAF8EAF639789A5BE
:102150009AA565969FAF8EAF65978BA59CA5679650
:102160009FAF8EAF679718A61FA21AA619A6BCCF5D
:1021700087960E94EF0766E173E0CE0187960E9482
:102180007908182FCE0187960E943E06BE01635A39
:102190007F4FCE01112309F454C0855B9F4F0E94ED
:1021A000EF07CE01855B9F4F0E94820561962EADA1
:1021B0003FAD6197AC014F5F5F4FBE01655B7F4FE5
:1021C000CE0187960E941A08CE0187960E94F306D8
:1021D000CE0187960E9486076EE472E0CE01879654
:1021E0000E9446068823C1F036E2039FF0011124C5
:1021F000EB55FB4F81E0838356E2059FF0011124EC
:10220000EB55FB4F81E08183CE0187960E943E060D
:10221000CE01855B9F4F8ECF6CE572E0CE01879635
:102220000E944606882341F046E2049FF0011124F3
:10223000EB55FB4F1382E0CF82E293E00E9417063A
:10224000E3CF8F5A9F4F0E94EF0766E373E0CE0102
:102250008F5A9F4F0E947908182F811129C0BE0103
:10226000635A7F4FCE01855B9F4F0E94EF076DE35E
:1022700073E0CE01855B9F4F0E947908182F811172
:1022800012C0BE01635A7F4FCE0187960E94EF07AE
:1022900063E473E0CE0187960E947908182FCE017F
:1022A00087960E943E06CE01855B9F4F0E943E06A8
:1022B000CE018F5A9F4F0E943E0680E793E0112384
:1022C00009F49ACDBE01635A7F4FCE01855B9F4FC3
:1022D0000E94EF07CE01855B9F4F0E9482056196A9
:1022E0002EAD3FAD6197AC014F5F5F4FBE01655BA7
:1022F0007F4FCE0187960E941A08CE0187960E94D2
:10230000F306CE0187960E9486076EE472E0CE0146
:1023100087960E944606882351F086E2089FD001E6
:102320001124AB55BB4F81E014968C9310C06CE523
:1023300072E0CE0187960E944606882389F096E2D5
:10234000099FD0011124AB55BB4F14961C9226E275
:10235000029FF0011124EB55FB4F81E0828354CFA3
:1023600069E473E0CE0187960E944606811108C099
:1023700066E573E0CE0187960E944606882341F009
:10238000E6E20E9FD0011124AB55BB4F82E0CCCFCB
:1023900081E693E053CFCE01855B9F4F0E94EF070C
:1023A000BE01655B7F4FCE0187960E94EF07CE018D
:1023B00087960E945007182FCE0187960E943E06EE
:1023C0001F3F09F463C08FEF9FEF153040F4E12FFA
:1023D000F0E0EE0FFF1FEE5EFE4F80819181BE01A7
:1023E000695D7F4F0E945B068FA1823491F081E08E
:1023F0008093680561E084E00E941B016FE773E051
:102400008DE692E00E94DD058FE893E00E94A90529
:1024100070C0109301011092680560E084E00E9492
:102420001B0161E082E00E941B0161E088A5813010
:1024300009F060E08AE00E941B0189A58130B9F4AF
:102440000E94DE0488A561E572E0813011F463E446
:1024500072E0CE018A960E94DD056AE973E088E7A2
:1024600095E00E94D505812F0E94C204CFCF88231A
:1024700039F310926705109263051092640510926B
:102480006505109266050E948106DCCF63EA73E061
:10249000CE01855B9F4F0E9446068823F9F06AEAC9
:1024A00073E088E795E00E94D505809101010E94C4
:1024B000C204BC0188E795E00E94D50562E173E0A3
:1024C00088E795E00E94D50580916805811103C0D9
:1024D00089ED92E09BCF83EE93E098CF62EB73E0BF
:1024E000CE01855B9F4F0E944606882331F00E94F3
:1024F000CA05CE01855B9F4F0FCD6FEB73E0CE0118
:10250000855B9F4F0E944606882319F00E94C005F4
:10251000F0CF81E08093680561E084E00E941B01B8
:102520006DEC73E087ED93E00E94DD058FED93E0A5
:102530006DCF8FA318A600914A0610914B060F5F2E
:102540001F4FB80186E496E00E949C07882309F497
:1025500064CB209146063091470680914A069091BF
:102560004B06BE01695D7F4F820F931F0E940F16BD
:1025700010934B0600934A0650CBE9EBF0E08491B0
:10258000E5EAF0E00491E1E9F0E01491112309F4A7
:1025900067C081110E94F200E12FF0E0EE0FFF1FF3
:1025A000E859FF4FA591B491EC91E02331E020E090
:1025B00009F430E0832F922F182F1170209103011E
:1025C000121799F02FB7F89440917005509171054A
:1025D00060917205709173052FBF40936B05509306
:1025E0006C0560936D0570936E052FB7F89440915C
:1025F00070055091710560917205709173052FBF40
:10260000C0906B05D0906C05E0906D05F0906E0564
:102610004C195D096E097F09493251056105710543
:1026200070F020910201121751F010930201892BD2
:1026300031F480916A058823B1F00E94C00510939F
:1026400003010E94810680E090E0892B09F4E5CA2D
:102650000E944902882309F4E0CA0E940000DDCAF2
:1026600090E080E0A9CF0E94CA05E9CF86E496E019
:102670000C943E0691110C944313803219F089504A
:102680008550C8F70895992788270895F999FECFAE
:1026900092BD81BDF89A992780B50895262FF999A2
:1026A000FECF1FBA92BD81BD20BD0FB6F894FA9A35
:1026B000F99A0FBE01960895052E97FB1EF400941B
:1026C0000E94731357FD07D00E94C51307FC03D067
:1026D0004EF40C94731350954095309521953F4FCF
:1026E0004F4F5F4F089590958095709561957F4FFE
:1026F0008F4F9F4F08950E94E713A59F900DB49FA1
:10270000900DA49F800D911D11240895B7FF0C9486
:102710007B130E947B13821B930B08952F923F9291
:102720004F925F926F927F928F929F92AF92BF92E1
:10273000CF92DF92EF92FF920F931F93CF93DF938D
:10274000CDB7DEB7CA1BDB0B0FB6F894DEBF0FBEEA
:10275000CDBF09942A88398848885F846E847D8437
:102760008C849B84AA84B984C884DF80EE80FD8039
:102770000C811B81AA81B981CE0FD11D0FB6F894AF
:10278000DEBF0FBECDBFED010895A1E21A2EAA1B38
:10279000BB1BFD010DC0AA1FBB1FEE1FFF1FA21711
:1027A000B307E407F50720F0A21BB30BE40BF50B0E
:1027B000661F771F881F991F1A9469F76095709597
:1027C000809590959B01AC01BD01CF010895A29F1A
:1027D000B001B39FC001A39F700D811D1124911DF5
:1027E000B29F700D811D1124911D0895991B79E0F0
:1027F00004C0991F961708F0961B881F7A95C9F791
:1028000080950895EE0FFF1F0590F491E02D099437
:102810000F931F93CF93DF938230910510F482E0E2
:1028200090E0E0915D06F0915E0630E020E0B0E0DF
:10283000A0E0309799F42115310509F44AC0281B0E
:10284000390B24303105D8F58A819B8161157105DA
:1028500089F1FB0193838283FE0111C04081518184
:102860000281138148175907E0F04817590799F476
:10287000109761F012960C93129713961C93329650
:10288000CF01DF91CF911F910F91089500935D06C5
:1028900010935E06F4CF2115310551F0421753070E
:1028A00038F0A901DB019A01BD01DF01F801C1CFB8
:1028B000EF01F9CF90935E0680935D06CDCFFE01C8
:1028C000E20FF31F819391932250310939832883BA
:1028D000D7CF20915B0630915C06232B41F42091E9
:1028E00006013091070130935C0620935B0620912E
:1028F0000401309105012115310541F42DB73EB792
:102900004091080150910901241B350BE0915B06B1
:10291000F0915C06E217F307A0F42E1B3F0B28177B
:10292000390778F0AC014E5F5F4F2417350748F048
:102930004E0F5F1F50935C0640935B06819391930B
:102940009FCFF0E0E0E09CCFCF93DF930097E9F0DA
:10295000FC01329713821282A0915D06B0915E064F
:10296000ED0130E020E01097A1F420813181820F49
:10297000931F20915B0630915C062817390709F0F8
:1029800061C0F0935C06E0935B06DF91CF91089500
:10299000EA01CE17DF07E8F54A815B819E01411508
:1029A0005105B1F7E901FB83EA8349915991C40FBD
:1029B000D51FEC17FD0761F4808191810296840F89
:1029C000951FE90199838883828193819B838A8300
:1029D000F0E0E0E012968D919C9113970097B9F585
:1029E0002D913C911197CD010296820F931F20915A
:1029F0005B0630915C062817390739F6309751F598
:102A000010925E0610925D06B0935C06A0935B0682
:102A1000BCCFD383C28340815181840F951FC817D7
:102A2000D90761F44E5F5F4F88819981480F591F24
:102A3000518340838A819B81938382832115310551
:102A400009F0B0CFF0935E06E0935D069ECFFD01E6
:102A5000DC01C0CF13821282D7CFB0E0A0E0E3E365
:102A6000F5E10C9490138C01009751F4CB010E9476
:102A700008148C01C801CDB7DEB7E0E10C94AC13AB
:102A8000FC01E60FF71F9C0122503109E217F30702
:102A900008F49DC0D901CD91DC911197C617D707D5
:102AA00098F0C530D10530F3CE010497861797070B
:102AB00008F3C61BD70B2297C193D1936D937C93D8
:102AC000CF010E94A414D6CF5B01AC1ABD0A4C0101
:102AD0008C0E9D1EA0915D06B0915E06512C412C7E
:102AE000F12CE12C109731F580915B0690915C06FA
:102AF0008815990509F05CC04616570608F058C0BD
:102B00008091040190910501009741F48DB79EB723
:102B10004091080150910901841B950BE817F907B2
:102B200008F055C0F0935C06E0935B06F9017183F1
:102B30006083A0CF8D919C91119712966C90129703
:102B400013967C901397A815B90559F56C0142E0CE
:102B5000C40ED11CCA14DB0420F1AC014A195B0974
:102B6000DA011296159780F0628273825183408356
:102B7000D9016D937C93E114F10471F0D7011396A0
:102B8000FC93EE93129776CF22968C0F9D1FF9013E
:102B900091838083F301EFCFF0935E06E0935D06AF
:102BA00069CF4816590608F42C017D01D3019ACF4C
:102BB000CB010E9408147C01009749F0AE01B801D6
:102BC0000E94F215C8010E94A414870153CF10E09F
:102BD00000E050CF9111089581568A5108F4805237
:102BE00085580895FB01DC0102C001900D9241500F
:102BF0005040D8F70895FC018191861721F0882371
:102C0000D9F7992708953197CF010895FB01DC0189
:102C10008D91019080190110D9F3990B0895FB0152
:102C2000DC0101900D920020E1F70895FB01DC0129
:102C30004150504030F08D910190801919F40020DE
:102C4000B9F7881B990B0895FB01DC0141505040F6
:102C500048F001900D920020C9F701C01D9241502B
:102C60005040E0F70895FB0151915523A9F0BF01B1
:102C7000DC014D9145174111E1F759F4CD01019067
:102C8000002049F04D9140154111C9F3FB0141115C
:102C9000EFCF81E090E00197089510E0C2E6D0E028
:102CA00004C0FE010E9402142196C336D107C9F761
:042CB000F894FFCFC6
:102CB400FFFF010100005F068000000040001400D7
:102CC40054000000240048006C0090000000000044
:102CD4007F02DF010C02CC023D021B022F02000026
:102CE4000000A9037C03BF0452037503620353036A
:102CF400000000006705DF01BF04DE016D6F646F33
:102D04005F666965737461006D6F646F5F72656C93
:102D1400616A61646F006D6F646F5F6E6F63686595
:102D2400006170616761725F746F646F00656E63E8
:102D3400656E6465725F746F646F00646573636F5E
:102D44006E6F6369646F000D0A00444F4F525F4316
:102D54004C4F53454400444F4F525F4F50454E0033
:102D64004573706572616E646F2E2E2E0053697305
:102D740074656D61206C6973746F005245414459E8
:102D8400004572726F72206172636869766F0055D4
:102D9400504C4F41445F4552524F523A004D6F647C
:102DA4006F3A204649455354412E004D6F646F3AA3
:102DB4002052454C414A41444F2E004D6F646F3AB6
:102DC400204E4F4348452E004D6F646F3A20544FB8
:102DD400444F204F4E2E004D6F646F3A20544F44A1
:102DE4004F204F46462E004D6F646F206163746917
:102DF400766F0056656E74696C61646F72204F4E15
:102E04000056656E74696C61646F72204F464600AB
:102E14007061726120696E696369617200436172F5
:102E2400677565202E6F7267002F2F00636F6E66C3
:102E34005F696E6900526563696269656E646F2ECD
:102E44002E2E004361726761202E6F726700555009
:102E54004C4F41445F535441525400636F6E663A81
:102E640066696E006D6F646F20696E636F6D706C60
:102E740065746F006172636869766F207661636957
:102E84006F0055504C4F41445F4F4B006775617262
:102E94006461646100436F6E66696775726163693A
:102EA4006F6E006D6F646F206E6F20646566696E6F
:102EB40069646F004D656E73616A6520656E204CB0
:102EC40043443A00220056656E74696C61646F7203
:102ED4003A0076656E74696C61646F7220696E760F
:102EE400616C69646F004C454427533A004C454477
:102EF400533A004C4544733A00414C5445524E41B8
:102F04004E444F534500414C5445524E414E444F5C
:102F1400006C65647320696E76616C69646F73001C
:102F24006C696E656120696E76616C696461004DDF
:102F34006F646F2073696E20636F6E666967004DFE
:102F44004F44455F4552524F52004D4F44455F4FE9
:102F54004B3A0065737461646F0053544154555384
:102F64003A0061627269725F7075657274610063C0
:102F740065727261725F707565727461004E6F2064
:102F840076616C69646F00436F6D616E646F0043BA
:0A2F94004D445F4552524F520000B9
:00000001FF
